:1000000071C0000081C000007FC000007DC0000002
:100010007BC0000079C0000077C0000075C0000000
:1000200073C0000071C000006FC000006DC0000010
:100030006BC0000069C0000067C0000065C0000020
:1000400063C0000061C000005FC000005DC0000030
:100050005BC0000059C0000057C0000055C0000040
:1000600053C0000051C000004FC000004DC0000050
:100070004BC0000049C0000047C0000045C0000060
:1000800043C0000041C000003FC000003DC0000070
:100090003BC0000039C0000037C0000035C0000080
:1000A00033C0000031C000002FC000002DC0000090
:1000B0002BC0000029C0000027C0000025C00000A0
:1000C00023C0000021C000001FC000001DC00000B0
:1000D0001BC0000019C0000017C0000015C00000C0
:1000E00013C0000011241FBECFEFD1E2DEBFCDBF91
:1000F00000E00CBF22E0A0E0B2E001C01D92AD30F4
:10010000B207E1F7FED11CC27BCF87B1876F87B9F9
:1001100088B1807888B9089586E69EE00197F1F766
:1001200000004098419880E388B9429AEFEFF7E4E5
:100130003197F1F700C000004298E6E6FEE0319703
:10014000F1F700004098419888B9429AEFEFF7E440
:100150003197F1F700C000004298E6E6FEE03197E3
:10016000F1F700004098419888B9429A8FEF97E4E0
:100170000197F1F700C000004298E6E6FEE03197F3
:10018000F1F700004098419880E288B9429A8FEFD9
:1001900097E40197F1F700C000004298089598B1E4
:1001A0009F7098B998B1282F207F922B98B94098CA
:1001B0004198429AEFEFF7E43197F1F700C0000061
:1001C000429898B19F7098B998B18295807F892B99
:1001D00088B940984198429A8FEF97E40197F1F7D8
:1001E00000C000004298089586E69EE00197F1F76E
:1001F000000088E2D4DF81E0D2DF86E0D0DF8EE04D
:10020000CEDF80E8CCCF089598B19F7098B998B1AF
:10021000282F207F922B98B9409A4198429AEFEF6D
:10022000F7E43197F1F700C00000429898B19F7051
:1002300098B998B18295807F892B88B9409A419866
:10024000429A8FEF97E40197F1F700C000004298BF
:10025000089580E8A4CF0895823069F018F48130C1
:1002600031F00895833059F0843069F008958FE7B4
:10027000860F95CF08958FEB860F91CF089583E970
:10028000860F8DCF089583ED860F89CF08950F9344
:100290001F93CF93DF938A01E901882311F0611145
:1002A00002C0D7DF01C0D8DFC530D10509F0D1C009
:1002B0009801329522952F7023273F702327A7E4BA
:1002C000B3E02FD1969587959695879596958795C6
:1002D000C096909302028093010296DF98013695B2
:1002E00027953695279536952795A5ECB0E219D137
:1002F000AC01529542954F7045275F70452750934A
:100300000C0240930B029A01ADECBCEC0AD196951D
:10031000879596958795969587959C01220F331F13
:10032000880F991F880F991F880F991F820F931F9D
:100330009A01281B390BC901C0969093040280933F
:10034000030262DF03C0C330D10579F59801369509
:10035000279536952795ABE7B4E1E3D0AC015695E8
:10036000479550930C0240930B029A01ADECBCEC04
:10037000D8D09695879596958795969587959C0163
:10038000220F331F880F991F880F991F880F991FFD
:10039000820F931F9A01281B390BC901C0969093B5
:1003A00006028093050230DF04C0C230D10509F097
:1003B00055C09801ADECBCECB4D0AC015695479556
:1003C000569547955695479550930C0240930B02CE
:1003D0009A01A7D096958795969587959695879536
:1003E0009C01220F331F880F991F880F991F880FB8
:1003F000991F820F931F9A01281B390BC901C096C0
:100400009093080280930702FFDE9801ADECBCECEC
:1004100088D09695879596958795969587959C0112
:10042000220F331F880F991F880F991F880F991F5C
:10043000820F931F9801281B390BC901C096909316
:100440000A0280930902E0DE269764F085E4DCDE90
:1004500009C0C430D10509F076CF40CFC130D105F5
:1004600099F7D3CFDF91CF911F910F91089510BAD3
:1004700011BA1092070110920801089546DEF7CFD5
:100480000895EAE7F0E0108210927B0080E280930A
:100490007C0080E880BF86E880830895883018F06B
:1004A00098E090937B008770806280937C00EAE7FD
:1004B000F0E0808180648083808184FFFDCF809123
:1004C0007900EAE7F0E090819061908310927B00E0
:1004D0000895CF93DF93C82FD62F842FDFDF809529
:1004E00080930002482F50E023E030E06D2F8C2FE6
:1004F000CEDEDF91CF910895F894C0DFC2DF78940B
:100500000895FADF09DE70DE43E061E081E0E1DFBB
:1005100042E065E081E0DDDF41E069E081E0D9DFD4
:10052000F3CFA29FB001B39FC001A39F700D811DA7
:100530001124911DB29F700D811D1124911D0895EC
:04054000F894FFCF5D
:00000001FF
