S0150000656E636F64657273206F6E6C792E73726563DA
S113000071C000008EC000008CC000008AC00000D7
S113001088C00000D9C00000B2C0000082C0000047
S113002080C000007EC000007CC000007AC00000D8
S113003078C0000076C0000074C0000072C00000E8
S113004070C000006EC000006CC000006AC00000F8
S113005068C0000066C0000064C0000062C0000008
S113006060C000005EC000005CC000005AC0000018
S113007058C0000056C0000054C0000052C0000028
S113008050C000004EC000004CC000004AC0000038
S113009048C0000046C0000044C0000042C0000048
S11300A040C000003EC000003CC000003AC0000058
S11300B038C0000036C0000034C0000032C0000068
S11300C030C000002EC000002CC000002AC0000078
S11300D028C0000026C0000024C0000022C0000088
S11300E020C0000011241FBECFEFD1E2DEBFCDBF80
S11300F000E00CBF12E0A0E0B2E0E0E2F7E000E0D4
S11301000BBF02C007900D92A430B107D9F722E0CB
S1130110A4E0B2E001C01D92AC30B207E1F7CAD14D
S1130120FDC26ECF81B18F6081B982B1807F82B907
S1130130EAE0F1E0808188618083EBE0F1E0808196
S11301408861808308956C98749A08956D98759A5F
S11301500895E8DFF8DFFACF0895F894EAE6F0E0CE
S1130160808182608083EC9A78940895F894EAE61A
S1130170F0E0808188608083ED9A789408951F92DE
S11301800F920FB60F9211248F939F93AF93BF9347
S11301908091040290910502A0910602B091070299
S11301A00196A11DB11D8093040290930502A093B2
S11301B00602B0930702BF91AF919F918F910F9068
S11301C00FBE0F901F9018951F920F920FB60F92AB
S11301D011248F939F93AF93BF93809108029091C2
S11301E00902A0910A02B0910B020196A11DB11D52
S11301F08093080290930902A0930A02B0930B0221
S1130200BF91AF919F918F910F900FBE0F901F9050
S1130210189592B1907F8F70982B92B9089586E0CB
S1130220F8CF089584E0F5CF089580E0F2CF0895E3
S1130230CF92DF92EF92FF920F931F93BC0180E065
S113024090E0DED128E431EE42E850E445D1ACD16F
S1130250AB0160E070E0109204021092050210926B
S113026006021092070210920802109209021092DC
S11302700A0210920B0291E0E0E000910402109156
S113028005022091060230910702C0900802D09026
S11302900902E0900A02F0900B02892F0417150757
S11302A02607370708F48E2F811109C0892FC41639
S11302B0D506E606F70608F48E2F8823F1F2B5DF9B
S11302C01F910F91FF90EF90DF90CF9008958F9240
S11302D09F92AF92BF92CF92DF92EF92FF920F93D1
S11302E01F93CF93DF93BC0180E090E089D12BE78B
S11302F034E14EEA50E4F0D057D16B017C01109206
S11303000402109205021092060210920702109243
S113031008021092090210920A0210920B028EE156
S113032090E09093030280930202909301028093E1
S1130330000240E052E022E032E0C8E2D1E0EAE22A
S1130340F1E00EE110E0DA018C91D9019C919883DF
S113035080838090080290900902A0900A02B090D5
S11303600B028091040290910502A0910602B091C3
S1130370070288159905AA05BB0590F4809100022F
S1130380909101020596909301028093000280915E
S11303900202909103020597909303028093020254
S11303A08090040290900502A0900602B09007028B
S11303B08091080290910902A0910A02B0910B0267
S11303C088159905AA05BB0590F4809100029091C7
S11303D0010205969093010280930002809102022B
S11303E090910302059790930302809302028090F8
S11303F0080290900902A0900A02B0900B0280912A
S1130400040290910502A0910602B0910702881699
S11304109906AA06BB0641F4109303020093020254
S11304201093010200930002809004029090050250
S1130430A0900602B09007028091080290910902F0
S1130440A0910A02B0910B02880D991DAA1DBB1D33
S1130450B695A795979587958C159D05AE05BF050F
S113046008F471CFE2DEDF91CF911F910F91FF90DD
S1130470EF90DF90CF90BF90AF909F908F900895B2
S1130480CF93DF93EC01CBDECE0121DFDF91CF915F
S11304900895CF93DF93EC01C5DECE01880F991F39
S11304A0C7DEDF91CF910895F89453DE56DE5EDE09
S11304B078940895F9DF80E991E0E2DFB6DE8AE519
S11304C090E0E7DF2FEF8FE796E1215080409040E6
S11304D0E1F700C00000EFCF0CD0E6C0DED040F062
S11304E0D5D030F021F45F3F19F0C7C0511110C1CD
S11304F0CAC0EBD098F39923C9F35523B1F3951BE4
S1130500550BBB27AA2762177307840738F09F5F30
S11305105F4F220F331F441FAA1FA9F333D00E2E9F
S11305203AF0E0E830D091505040E695001CCAF70C
S113053029D0FE2F27D0660F771F881FBB1F2617D1
S113054037074807AB07B0E809F0BB0B802DBF01A4
S1130550FF2793585F4F2AF09E3F510568F08DC0E6
S1130560D7C05F3FECF3983EDCF3869577956795AB
S1130570B795F7959F5FC9F7880F911D9695879555
S113058097F90895E1E0660F771F881FBB1F621774
S113059073078407BA0720F0621B730B840BBA0B32
S11305A0EE1F88F7E095089598D088F09F5790F053
S11305B0B92F9927B751A0F0D1F0660F771F881F84
S11305C0991F1AF0BA95C9F712C0B13081F09FD0C3
S11305D0B1E008959CC0672F782F8827B85F39F061
S11305E0B93FCCF3869577956795B395D9F73EF4E3
S11305F090958095709561957F4F8F4F9F4F08958B
S1130600E89409C097FB3EF49095809570956195A8
S11306107F4F8F4F9F4F9923A9F0F92F96E9BB275E
S11306209395F695879577956795B795F111F8CFDA
S1130630FAF4BB0F11F460FF1BC06F5F7F4F8F4F45
S11306409F4F16C0882311F096E911C0772321F03B
S11306509EE8872F762F05C0662371F096E8862FD3
S113066070E060E02AF09A95660F771F881FDAF72A
S1130670880F9695879597F9089597F99F6780E86D
S113068070E060E008959FEF80EC089500240A94E0
S11306901616170618060906089500240A94121659
S11306A01306140605060895092E0394000C11F48C
S11306B0882352F0BB0F40F4BF2B11F460FF04C039
S11306C06F5F7F4F8F4F9F4F089557FD9058440F92
S11306D0551F59F05F3F71F04795880F97FB991F9D
S11306E061F09F3F79F0879508951216130614065A
S11306F0551FF2CF4695F1DF08C0161617061806E7
S1130700991FF1CF86957105610508940895E894C1
S1130710BB2766277727CB0197F90895F894FFCF75
S10707201E001E0095
S9030000FC
