S018000070726F6772657373207461736B2076312E73726563FD
S113000071C000008EC000008CC000008AC00000D7
S113001088C0000087C2000060C2000082C00000E7
S113002080C000007EC000007CC000007AC00000D8
S113003078C0000076C0000074C0000072C00000E8
S113004070C000006EC000006CC000006AC00000F8
S113005068C0000066C0000064C0000062C0000008
S113006060C000005EC000005CC000005AC0000018
S113007058C0000056C0000054C0000052C0000028
S113008050C000004EC000004CC000004AC0000038
S113009048C0000046C0000044C0000042C0000048
S11300A040C000003EC000003CC000003AC0000058
S11300B038C0000036C0000034C0000032C0000068
S11300C030C000002EC000002CC000002AC0000078
S11300D028C0000026C0000024C0000022C0000088
S11300E020C0000011241FBECFEFD1E2DEBFCDBF80
S11300F000E00CBF12E0A0E0B2E0ECEEFDE000E0B6
S11301000BBF02C007900D92A630B107D9F722E0C9
S1130110A6E0B2E001C01D92AF31B207E1F7C9D445
S113012063C66ECF87B1876F87B988B1807888B985
S1130130089586E69EE00197F1F700004098419803
S113014080E388B9429AEFEFF7E43197F1F700C002
S113015000004298E6E6FEE03197F1F7000040988F
S1130160419888B9429AEFEFF7E43197F1F700C06C
S113017000004298E6E6FEE03197F1F7000040986F
S1130180419888B9429A8FEF97E40197F1F700C03C
S113019000004298E6E6FEE03197F1F7000040984F
S11301A0419880E288B9429A8FEF97E40197F1F77A
S11301B000C000004298089598B19F7098B998B112
S11301C0282F207F922B98B940984198429AEFEFBC
S11301D0F7E43197F1F700C00000429898B19F709E
S11301E098B998B18295807F892B88B940984198B5
S11301F0429A8FEF97E40197F1F700C0000042980C
S1130200089586E69EE00197F1F7000088E2D4DFC6
S113021081E0D2DF86E0D0DF8EE0CEDF80E8CCCF95
S1130220089598B19F7098B998B1282F207F922B88
S113023098B9409A4198429AEFEFF7E43197F1F771
S113024000C00000429898B19F7098B998B1829507
S1130250807F892B88B9409A4198429A8FEF97E41E
S11302600197F1F700C000004298089580E8A4CFF8
S11302700895823069F018F4813031F008958330A4
S113028059F0843069F008958FE7860F95CF08956B
S11302908FEB860F91CF089583E9860F8DCF089554
S11302A083ED860F89CF08950F931F93CF93DF9328
S11302B08A01E901882311F0611102C0D7DF01C06E
S11302C0D8DFC530D10509F0D1C098013295229507
S11302D02F7023273F702327A7E4B3E076D59695A4
S11302E087959695879596958795C09690931402D1
S11302F08093130296DF98013695279536952795B6
S113030036952795A5ECB0E260D5AC01529542959F
S11303104F7045275F70452750931E0240931D027E
S11303209A01ADECBCEC51D5969587959695879539
S1130330969587959C01220F331F880F991F880F6C
S1130340991F880F991F820F931F9A01281B390B3D
S1130350C901C096909316028093150262DF03C010
S1130360C330D10579F598013695279536952795AB
S1130370ABE7B4E12AD5AC015695479550931E02DC
S113038040931D029A01ADECBCEC1FD59695879560
S113039096958795969587959C01220F331F880F14
S11303A0991F880F991F880F991F820F931F9A0115
S11303B0281B390BC901C096909318028093170229
S11303C030DF04C0C230D10509F055C09801ADEC4E
S11303D0BCECFBD4AC01569547955695479556957C
S11303E0479550931E0240931D029A01EED49695B0
S11303F0879596958795969587959C01220F331F2F
S1130400880F991F880F991F880F991F820F931FB8
S11304109A01281B390BC901C09690931A02809344
S11304201902FFDE9801ADECBCECCFD4969587950C
S113043096958795969587959C01220F331F880F73
S1130440991F880F991F880F991F820F931F980176
S1130450281B390BC901C09690931C0280931B0280
S1130460E0DE269764F085E4DCDE09C0C430D10503
S113047009F076CF40CFC130D10599F7D3CFDF91C2
S1130480CF911F910F91089581B18F6081B982B18D
S1130490807F82B9EAE0F1E08081886180830895F9
S11304A06C98749A08956D98759A08953BDEECDF04
S11304B0F7DFF9CF0895F894EAE6F0E080818260EE
S11304C08083EC9A78940895F894EAE6F0E08081C9
S11304D088608083ED9A789408951F920F920FB6E6
S11304E00F9211248F939F93AF93BF9380910B022C
S11304F090910C02A0910D02B0910E020196A11DE3
S1130500B11D80930B0290930C02A0930D02B09343
S11305100E02BF91AF919F918F910F900FBE0F90DC
S11305201F9018951F920F920FB60F9211248F935C
S11305309F93AF93BF9380910F0290911002A0916B
S11305401102B09112020196A11DB11D80930F02F8
S113055090931002A0931102B0931202BF91AF9135
S11305609F918F910F900FBE0F901F90189592B18D
S1130570907F8F70982B92B9089586E0F8CF0895F4
S113058089E0F5CF089585E0F2CF08958AE0EFCFB2
S1130590089584E0ECCF089582E0E9CF089581E0E6
S11305A0E6CF089588E0E3CF089580E0E0CF089592
S11305B08F929F92AF92BF92CF92DF92EF92FF926F
S11305C01F93CF93DF93BC0180E090E070D328E4C5
S11305D031EE42E850E4D7D23ED3EB016B01E12C7B
S11305E0F12C10920B0210920C0210920D02109238
S11305F00E0210920F021092100210921102109229
S1130600120210E040910F02509110026091110209
S11306107091120222E030E061E081E045DE22E0E8
S113062030E0AE0164E081E03FDE40910B02509186
S11306300C0260910D0270910E0222E030E067E03E
S113064081E032DE40910B0250910C0260910D0268
S113065070910E0280900F0290901002A0901102EF
S1130660B090120281E04C155D056E057F0508F41B
S1130670812F81110AC081E08C149D04AE04BF0453
S113068008F4812F882309F4BDCF8FDFDF91CF9148
S11306901F91FF90EF90DF90CF90BF90AF909F900D
S11306A08F900895CF93DF93EC016DDFCE0180DF4F
S11306B0DF91CF910895CF93DF93EC0167DFCE01F3
S11306C077DFDF91CF910895CF93DF93EC0161DF62
S11306D0CE01880F991F6CDFDF91CF910895CF93DE
S11306E0DF93EC0159DFCE01880F991F61DFDF91A1
S11306F0CF910895CF93DF93EC0151DFCE01880FA2
S1130700991F56DFDF91CF910895CF93DF93EC01CA
S113071049DFCE01880F991F4BDFDF91CF910895F8
S1130720883018F098E090937B0087708062809303
S11307307C00EAE7F0E0808180648083808184FF2C
S1130740FDCF80917900EAE7F0E090819061908399
S113075010927B0080950895EAE7F0E010821092F1
S11307607B0080E280937C0080E880BF86E8808301
S11307700895E1E2F1E010828FEF8093250191E08A
S113078090932401109229018093280110922B0147
S113079080932A0189EA809320018BE08083089565
S11307A0F89484DEC6DC2DDDD7DFE3DF84DE8CDE67
S11307B07894089583E0B4DF8093080282E0B0DF88
S11307C08093070281E0ACDF8093060208954F9284
S11307D05F926F927F928F929F92AF92BF92CF92CD
S11307E0DF92EF92FF920F931F93CF93DF93BC019D
S11307F080E090E05CD22BE734E14EEA50E4C3D1D0
S11308002AD22B013C0110920B0210920C0210927E
S11308100D0210920E0210920F021092100210920A
S11308201102109212021092280110922A01AA2495
S1130830AA94B12C0F2EF8EC8F2E912CF02D0F2EA4
S1130840F2E0CF2EF2E0DF2EF02D0F2EF4E0EF2EAB
S1130850F2E0FF2EF02D08E211E0CAE2D1E0AADFB7
S113086040910F0250911002609111027091120296
S113087022E030E061E081E017DD22E030E0A20117
S113088064E081E011DD40910B0250910C02609113
S11308900D0270910E0222E030E067E081E004DD99
S11308A0409104025091050223E030E06BE081E0C6
S11308B0FBDC409102025091030223E030E06EE041
S11308C081E0F2DC4091080250E023E030E061E096
S11308D082E0EADC4091070250E023E030E065E08A
S11308E082E0E2DC4091060250E023E030E069E07F
S11308F082E0DADC4091090250910A0221E030E002
S11309006DE082E0D1DC40910F02509110026091C1
S113091011027091120280910B0290910C02A0912D
S11309200D02B0910E0284179507A607B707C0F40D
S113093080910002909101022091040230910502FD
S1130940281B390B309305022093040220910202E4
S113095030910302820F931F90930302809302024B
S113096040910B0250910C0260910D0270910E02A5
S113097080910F0290911002A0911102B091120285
S113098084179507A607B707C0F420910002309199
S113099001028091040290910502820F931F9093AB
S11309A00502809304028091020290910302821B4B
S11309B0930B909303028093020240910F02509193
S11309C01002609111027091120280910B029091B9
S11309D00C02A0910D02B0910E02481759076A0744
S11309E07B0749F4909205028092040290920302DC
S11309F08092020218C080910402909105028F3FF8
S1130A00910529F020F0B0920502A0920402809191
S1130A100202909103028F3F910529F020F0B092D9
S1130A200302A0920202F6018081F7019081F8018D
S1130A309083888380910F0290911002A0911102FB
S1130A40B091120284159505A605B70570F480913E
S1130A500B0290910C02A0910D02B0910E0284152C
S1130A609505A605B70508F4FACE9FDDDF91CF9171
S1130A701F910F91FF90EF90DF90CF90BF90AF90B8
S1130A809F908F907F906F905F904F900895CF9339
S1130A90DF93EC0172DDCE019ADEDF91CF910895F0
S1130AA0CF93DF93EC016CDDCE0191DEDF91CF912A
S1130AB0089576DE80E991E0EADF77DD2FEF8FE7B6
S1130AC096E1215080409040E1F700C0000080E9A9
S1130AD091E0E6DF6ADD2FEF8FE796E12150804059
S1130AE09040E1F700C000008AE590E0DBDD5DDDC9
S1130AF02FEF8FE796E1215080409040E1F700C04E
S1130B0000008AE590E0D7DD50DD2FEF8FE796E116
S1130B10215080409040E1F700C000008AE590E059
S1130B20D3DD43DD2FEF8FE796E1215080409040E5
S1130B30E1F700C000008AE590E0D1DD36DD2FEF5B
S1130B408FE796E1215080409040E1F700C000001B
S1130B508AE590E0CFDD29DD2FEF8FE796E1215084
S1130B6080409040E1F700C000008AE590E0CDDDD0
S1130B701CDD2FEF8FE796E1215080409040E1F794
S1130B8000C0000097CF0CD0E6C0DED040F0D5D036
S1130B9030F021F45F3F19F0C7C0511110C1CAC031
S1130BA0EBD098F39923C9F35523B1F3951B550B57
S1130BB0BB27AA2762177307840738F09F5F5F4F2C
S1130BC0220F331F441FAA1FA9F333D00E2E3AF06D
S1130BD0E0E830D091505040E695001CCAF729D087
S1130BE0FE2F27D0660F771F881FBB1F26173707D6
S1130BF04807AB07B0E809F0BB0B802DBF01FF2706
S1130C0093585F4F2AF09E3F510568F08DC0D7C0BE
S1130C105F3FECF3983EDCF3869577956795B7953F
S1130C20F7959F5FC9F7880F911D9695879597F95A
S1130C300895E1E0660F771F881FBB1F62177307D3
S1130C408407BA0720F0621B730B840BBA0BEE1FE8
S1130C5088F7E095089598D088F09F5790F0B92FC1
S1130C609927B751A0F0D1F0660F771F881F991FFD
S1130C701AF0BA95C9F712C0B13081F09FD0B1E033
S1130C8008959CC0672F782F8827B85F39F0B93F43
S1130C90CCF3869577956795B395D9F73EF49095FF
S1130CA08095709561957F4F8F4F9F4F0895E8947D
S1130CB009C097FB3EF490958095709561957F4FA0
S1130CC08F4F9F4F9923A9F0F92F96E9BB2793954E
S1130CD0F695879577956795B795F111F8CFFAF45E
S1130CE0BB0F11F460FF1BC06F5F7F4F8F4F9F4F8F
S1130CF016C0882311F096E911C0772321F09EE8ED
S1130D00872F762F05C0662371F096E8862F70E052
S1130D1060E02AF09A95660F771F881FDAF7880F2C
S1130D209695879597F9089597F99F6780E870E0FD
S1130D3060E008959FEF80EC089500240A9416164D
S1130D40170618060906089500240A9412161306B5
S1130D50140605060895092E0394000C11F4882343
S1130D6052F0BB0F40F4BF2B11F460FF04C06F5F5F
S1130D707F4F8F4F9F4F089557FD9058440F551F35
S1130D8059F05F3F71F04795880F97FB991F61F009
S1130D909F3F79F087950895121613061406551F80
S1130DA0F2CF4695F1DF08C0161617061806991FEC
S1130DB0F1CF86957105610508940895E894BB27E1
S1130DC066277727CB0197F90895A29FB001B39FB7
S1130DD0C001A39F700D811D1124911DB29F700D40
S10F0DE0811D1124911D0895F894FFCF8B
S1090DEC0A00C800C80063
S9030000FC
