S01300004C696E65466F6F77696E672E73726563B0
S113000071C000008EC000008CC000008AC00000D7
S113001088C000006CC2000045C2000082C000001D
S11300208BC200007EC000007CC000007AC00000CB
S113003078C0000076C0000074C0000072C00000E8
S113004070C000006EC000006CC000006AC00000F8
S113005068C0000066C0000064C0000062C0000008
S113006060C000005EC000005CC000005AC0000018
S113007058C0000056C0000054C0000052C0000028
S113008050C000004EC000004CC000004AC0000038
S113009048C0000046C0000044C0000042C0000048
S11300A040C000003EC000003CC000003AC0000058
S11300B038C0000036C0000034C0000032C0000068
S11300C030C000002EC000002CC0000044C200005C
S11300D028C0000026C0000024C0000022C0000088
S11300E020C0000011241FBECFEFD1E2DEBFCDBF80
S11300F000E00CBF12E0A0E0B2E0E2EBFFE000E0C1
S11301000BBF02C007900D92A230B107D9F722E0CD
S1130110A2E0B2E001C01D92AE36B207E1F7F1D51C
S113012046C76ECF87B1876F87B988B1807888B9A1
S1130130089586E69EE00197F1F700004098419803
S113014080E388B9429AEFEFF7E43197F1F700C002
S113015000004298E6E6FEE03197F1F7000040988F
S1130160419888B9429AEFEFF7E43197F1F700C06C
S113017000004298E6E6FEE03197F1F7000040986F
S1130180419888B9429A8FEF97E40197F1F700C03C
S113019000004298E6E6FEE03197F1F7000040984F
S11301A0419880E288B9429A8FEF97E40197F1F77A
S11301B000C000004298089598B19F7098B998B112
S11301C0282F207F922B98B940984198429AEFEFBC
S11301D0F7E43197F1F700C00000429898B19F709E
S11301E098B998B18295807F892B88B940984198B5
S11301F0429A8FEF97E40197F1F700C0000042980C
S1130200089586E69EE00197F1F7000088E2D4DFC6
S113021081E0D2DF86E0D0DF8EE0CEDF80E8CCCF95
S1130220089598B19F7098B998B1282F207F922B88
S113023098B9409A4198429AEFEFF7E43197F1F771
S113024000C00000429898B19F7098B998B1829507
S1130250807F892B88B9409A4198429A8FEF97E41E
S11302600197F1F700C000004298089580E8A4CFF8
S11302700895CF93DF93EC018881882329F0219698
S1130280D0DF89918111FCCFDF91CF910895823025
S113029069F018F4813031F00895833059F08430D6
S11302A069F008958FE7860F87CF08958FEB860F47
S11302B083CF089583E9860F7FCF089583ED860F5A
S11302C07BCF08950F931F93CF93DF938A01E901A6
S11302D0882311F0611102C0C9DF01C0D8DFC53025
S11302E0D10509F0D1C09801329522952F702327AA
S11302F03F702327A7E4B3E040D69695879596955B
S1130300879596958795C096909363028093620231
S113031088DF980136952795369527953695279544
S1130320A5ECB0E22AD6AC01529542954F70452710
S11303305F70452750936D0240936C029A01ADECB7
S1130340BCEC1BD69695879596958795969587953B
S11303509C01220F331F880F991F880F991F880F44
S1130360991F820F931F9A01281B390BC901C0964C
S1130370909365028093640254DF03C0C330D105B7
S113038079F598013695279536952795ABE7B4E12D
S1130390F4D5AC015695479550936D0240936C0289
S11303A09A01ADECBCECE9D5969587959695879521
S11303B0969587959C01220F331F880F991F880FEC
S11303C0991F880F991F820F931F9A01281B390BBD
S11303D0C901C096909367028093660222DF04C02D
S11303E0C230D10509F055C09801ADECBCECC5D5BF
S11303F0AC01569547955695479556954795509314
S11304006D0240936C029A01B8D59695879596959E
S11304108795969587959C01220F331F880F991F06
S1130420880F991F880F991F820F931F9A01281B09
S1130430390BC901C0969093690280936802F1DE7A
S11304409801ADECBCEC99D59695879596958795D2
S1130450969587959C01220F331F880F991F880F4B
S1130460991F880F991F820F931F9801281B390B1E
S1130470C901C09690936B0280936A02D2DE2697DC
S113048064F085E4CEDE09C0C430D10509F076CF2E
S113049040CFC130D10599F7D3CFDF91CF911F91D0
S11304A00F9108951F920F920FB60F9211248F93FC
S11304B09F93AF93BF9380915A0290915B02A09156
S11304C05C02B0915D020196A11DB11D80935A0298
S11304D090935B02A0935C02B0935D02BF91AF91D5
S11304E09F918F910F900FBE0F901F9018951F92A0
S11304F00F920FB60F9211248F939F93AF93BF93D4
S113050080915E0290915F02A0916002B0916102BD
S11305100196A11DB11D80935E0290935F02A0938A
S11305206002B0936102BF91AF919F918F910F9040
S11305300FBE0F901F9018951F920F920FB60F9237
S113054011248F9381E0809354028F910F900FBEFA
S11305500F901F9018951F920F920FB60F921124AF
S11305600BB60F922F933F934F935F936F937F93A9
S11305708F939F93AF93BF93CF93DF93EF93FF93A7
S1130580C0910202D09103028091D600FE01EA5C80
S1130590FD4F80838A3029F090915502911127C034
S11305A016C090915502911136C01DC0833221F5B9
S11305B081E08093560261E06ADE8DE192E059DECB
S11305C061E082E064DE84E092E053DE29C0BE0193
S11305D06A5C7D4F8DE192E0DFD42196D0930302D3
S11305E0C09302021DC081E08093550219C090910E
S11305F055029111DBCF0CC0BE016A5C7D4F84E0D3
S113060092E0CAD42196D0930302C093020208C098
S1130610833231F4CDCF909155029111EDCFF8CFC3
S1130620FF91EF91DF91CF91BF91AF919F918F9106
S11306307F916F915F914F913F912F910F900BBEDE
S11306400F900FBE0F901F90189510BA11BA109208
S11306500701109208010895259A2D9A0895269A63
S11306602E9A08956C98749A08956D98759A0895C1
S11306706F98779A089581B18F6081B982B1807F34
S113068082B9EAE0F1E0808188618083EBE0F1E007
S1130690808188618083089545DDD7DFECDFE2DF68
S11306A0E4DFDADFDCDFE4CF0895E1EDF0E010828F
S11306B01092D00086E08093D2008FE58093D4001E
S11306C01092D50088E980830895F894EAE6F0E072
S11306D0808182608083EC9A78940895F894EAE6A5
S11306E0F0E0808188608083ED9A78940895F8948E
S11306F0EAE6F0E0808180688083EF9A7894089538
S1130700E1E2F1E010828FEF8093250191E0909374
S11307102401109229018093280110922B018093C7
S11307202A0110922D0180932C0189EA80932001E3
S11307308BE080830895E1E8F0E010828CEF8093F1
S1130740850081E08093840093E0909389008FEF8B
S11307508093880090938B0080938A009093870005
S1130760809386008BEA80938000109282008CE054
S113077080830895EAE7F0E0108210927B0080E223
S113078080937C0080E880BF86E880830895883069
S113079018F098E090937B008770806280937C00CF
S11307A0EAE7F0E0808180648083808184FFFDCF6C
S11307B080917900EAE7F0E0908190619083109253
S11307C07B000895CF93DF93C82FD62F842FDFDFCC
S11307D080935302482F50E023E030E06D2F8C2F9C
S11307E071DDDF91CF91089592B1907F8F70982B36
S11307F092B9089580E0F8CF0895BF92CF92DF9226
S1130800EF92FF920F931F93CF93DF93BC0180E08D
S113081090E025D328E431EE42E850E48CD2F3D2C0
S1130820EB016B01E12CF12C10925A0210925B0245
S113083010925C0210925D0210925E0210925F02AE
S11308401092600210926102B12C809157028823A9
S113085001F140915E0250915F02609160027091DB
S1130860610222E030E061E082E02CDD22E030E051
S1130870AE0164E082E026DD40915A0250915B02B1
S113088060915C0270915D0222E030E067E082E0FA
S113089019DD40915A0250915B0260915C027091A3
S11308A05D0200915E0210915F022091600230911E
S11308B0610281E04C155D056E057F0508F48B2D02
S11308C081110AC081E00C151D052E053F0508F4B1
S11308D08B2D882309F4B9CF8DDFDF91CF911F9140
S11308E00F91FF90EF90DF90CF90BF90089586E036
S11308F07BCF089589E078CF089584E075DF109266
S1130900280184E680932A01089582E06DDF84E65D
S11309108093280110922A01089581E065CF0895FB
S113092088E062CF0895CF93DF93EC01E6DFCE0138
S1130930880F991F62DFDF91CF910895CF93DF93E2
S1130940EC01E3DFCE01880F991F57DFDF91CF91D0
S11309500895CF93DF93EC01E0DFCE01880F991F58
S11309604CDFDF91CF910895CF93DF93EC01D8DF73
S1130970CE01880F991F41DFDF91CF910895BC010B
S113098080E090E06CD225EE30ED4AEA50E4D3D119
S11309903AD2AB01BC0110925A0210925B0210923F
S11309A05C0210925D0280915A0290915B02A091C8
S11309B05C02B0915D02481759076A077B0798F7F4
S11309C019CF0895F89468DE80DE88DE90DE6DDE4F
S11309D0D1DEB1DE95DEADDB14DC78940895CF93DF
S11309E0DF93EC0187DFCE01CADFDF91CF91089559
S11309F0CF93DF93EC017BDFCE01C1DFDF91CF9199
S1130A00089583E0C4DE8093510282E0C0DE8093C7
S1130A10500281E0BCDE80934F028091570288230C
S1130A2061F043E061E081E0CDDE42E065E081E039
S1130A30C9DE41E069E081E0C5CE0895CF92DF923E
S1130A40EF92FF920F931F93CF93DF93DADF80919E
S1130A505002863188F00F2EF8E2EF2EFF24F39433
S1130A60F02DCFEF0AE211E0809151028631B8F403
S1130A7080914F02863198F408E211E0FF24FA9441
S1130A80CAE2D1E00F2EF3E6CF2EF02D0F2EF2E7BF
S1130A90DF2EF02D0F2EFCE6EF2EF02D0BC027DFFE
S1130AA0F701C083F801C083ACDF80915002863126
S1130AB0D8F6E2CF10925202A4DF80915002853121
S1130AC0D0F490914F029531B0F490915102953148
S1130AD090F480910002833629F4F801F082F882C0
S1130AE006DF75C08C3611F408DF71C0823709F057
S1130AF06EC00BDF6CC0863140F19091510296318B
S1130B0020F190914F02963100F188E790E070DF78
S1130B1071DE1092280110922A018091580290915E
S1130B2059020196909359028093580280910002D1
S1130B308C3621F482E78093000260C0823709F08A
S1130B405DC08CE68093000259C0909151029A31A5
S1130B50A0F0893108F04DC080914F02893108F02E
S1130B6045C0CBDE80915002893128F44ADF809160
S1130B7050028931D8F3E092000280915102893108
S1130B8030F5809150028931A0F480914F028A316E
S1130B9080F0BBDE80915002893128F432DF8091ED
S1130BA050028931D8F3D0920002809151028931E8
S1130BB070F4809150028A3150F080914F02893153
S1130BC030F4F801F082F88292DEC0920002809143
S1130BD05702882309F46ECF40915802509159026C
S1130BE022E030E06DE081E06DDB64CF993168F2A2
S1130BF0EECF809151028931E0F2E9CFDF91CF91BC
S1130C001F910F91FF90EF90DF90CF900895109275
S1130C10890083E28093880010928B0080938A007D
S1130C2008952FEF3FEF88E0215030408040E1F7F6
S1130C3000C00000A9E8B0E01C92E8E8F0E083E519
S1130C4080839FEF2FEF33E2915020403040E1F753
S1130C5000C0000010928B0080938A008FEF9FE702
S1130C602FE1815090402040E1F700C000001C9229
S1130C7083E28083089588EC8093280180932A017D
S1130C8080E590E066DE2FEF8FEF98E02150804002
S1130C909040E1F700C000008EE190E0A0DEAADD04
S1130CA0C0DF2FEF8FEF98E0215080409040E1F7B4
S1130CB000C0000080E590E041CE089588EC809368
S1130CC0280180932A0180E590E04EDE2FEF8FEF1C
S1130CD098E0215080409040E1F700C000008EE190
S1130CE090E07DDE87DD9DDF2FEF8FEF98E02150D0
S1130CF080409040E1F700C0000080E590E013CE12
S1130D00089560DE84DF9ADE2FEF8FEF98E02150A4
S1130D1080409040E1F700C00000D0DF78DF8EDE35
S1130D202FEF8FEF98E0215080409040E1F700C012
S1130D300000A1DFE8CF0CD0E6C0DED040F0D5D073
S1130D4030F021F45F3F19F0C7C0511110C1CAC07F
S1130D50EBD098F39923C9F35523B1F3951B550BA5
S1130D60BB27AA2762177307840738F09F5F5F4F7A
S1130D70220F331F441FAA1FA9F333D00E2E3AF0BB
S1130D80E0E830D091505040E695001CCAF729D0D5
S1130D90FE2F27D0660F771F881FBB1F2617370724
S1130DA04807AB07B0E809F0BB0B802DBF01FF2754
S1130DB093585F4F2AF09E3F510568F08DC0D7C00D
S1130DC05F3FECF3983EDCF3869577956795B7958E
S1130DD0F7959F5FC9F7880F911D9695879597F9A9
S1130DE00895E1E0660F771F881FBB1F6217730722
S1130DF08407BA0720F0621B730B840BBA0BEE1F37
S1130E0088F7E095089598D088F09F5790F0B92F0F
S1130E109927B751A0F0D1F0660F771F881F991F4B
S1130E201AF0BA95C9F712C0B13081F09FD0B1E081
S1130E3008959CC0672F782F8827B85F39F0B93F91
S1130E40CCF3869577956795B395D9F73EF490954D
S1130E508095709561957F4F8F4F9F4F0895E894CB
S1130E6009C097FB3EF490958095709561957F4FEE
S1130E708F4F9F4F9923A9F0F92F96E9BB2793959C
S1130E80F695879577956795B795F111F8CFFAF4AC
S1130E90BB0F11F460FF1BC06F5F7F4F8F4F9F4FDD
S1130EA016C0882311F096E911C0772321F09EE83B
S1130EB0872F762F05C0662371F096E8862F70E0A1
S1130EC060E02AF09A95660F771F881FDAF7880F7B
S1130ED09695879597F9089597F99F6780E870E04C
S1130EE060E008959FEF80EC089500240A9416169C
S1130EF0170618060906089500240A941216130604
S1130F00140605060895092E0394000C11F4882391
S1130F1052F0BB0F40F4BF2B11F460FF04C06F5FAD
S1130F207F4F8F4F9F4F089557FD9058440F551F83
S1130F3059F05F3F71F04795880F97FB991F61F057
S1130F409F3F79F087950895121613061406551FCE
S1130F50F2CF4695F1DF08C0161617061806991F3A
S1130F60F1CF86957105610508940895E894BB272F
S1130F7066277727CB0197F90895A29FB001B39F05
S1130F80C001A39F700D811D1124911DB29F700D8E
S1130F90811D1124911D0895FB01DC010D90002099
S1130FA0E9F7119701900D920020E1F70895F89464
S1050FB0FFCF6D
S1050FB26300D6
S9030000FC
