S01300004C696E65466F6F77696E672E73726563B0
S113000071C000008FC000008DC000008BC00000D4
S113001089C0000004C30000DDC2000083C00000EA
S113002023C300007FC000007DC000007BC000002F
S113003079C0000077C0000075C0000073C00000E4
S113004071C000006FC000006DC000006BC00000F4
S113005069C0000067C0000065C0000063C0000004
S113006061C000005FC000005DC000005BC0000014
S113007059C0000057C0000055C0000053C0000024
S113008051C000004FC000004DC000004BC0000034
S113009049C0000047C0000045C0000043C0000044
S11300A041C000003FC000003DC000003BC0000054
S11300B039C0000037C0000035C0000033C0000064
S11300C031C000002FC000002DC00000DCC20000C1
S11300D029C0000027C0000025C0000023C0000084
S11300E021C0000011241FBECFEFD1E2DEBFCDBF7F
S11300F000E00CBF12E0A0E0B2E0E2E7F5E100E0CE
S11301000BBF02C007900D92A034B107D9F725E0C8
S1130110A0E4B2E001C01D92A435B207E1F7C9D74B
S11301200C94B70A6DCF87B1876F87B988B180788F
S113013088B9089586E69EE00197F1F7000040989B
S1130140419880E388B9429AEFEFF7E43197F1F7E9
S113015000C000004298E6E6FEE03197F1F70000A7
S11301604098419888B9429AEFEFF7E43197F1F754
S113017000C000004298E6E6FEE03197F1F7000087
S11301804098419888B9429A8FEF97E40197F1F724
S113019000C000004298E6E6FEE03197F1F7000067
S11301A04098419880E288B9429A8FEF97E401978A
S11301B0F1F700C000004298089598B19F7098B973
S11301C098B1282F207F922B98B940984198429A51
S11301D0EFEFF7E43197F1F700C00000429898B1CF
S11301E09F7098B998B18295807F892B88B940987F
S11301F04198429A8FEF97E40197F1F700C000000D
S11302004298089586E69EE00197F1F7000088E29F
S1130210D4DF81E0D2DF86E0D0DF8EE0CEDF80E87D
S1130220CCCF089598B19F7098B998B1282F207FAA
S1130230922B98B9409A4198429AEFEFF7E431979C
S1130240F1F700C00000429898B19F7098B998B136
S11302508295807F892B88B9409A4198429A8FEF82
S113026097E40197F1F700C000004298089580E8F0
S1130270A4CF0895CF93DF93EC018881882329F0DC
S11302802196D0DF89918111FCCFDF91CF91089520
S1130290823069F018F4813031F00895833059F0D8
S11302A0843069F008958FE7860F87CF08958FEB28
S11302B0860F83CF089583E9860F7FCF089583ED5A
S11302C0860F7BCF08950F931F93CF93DF938A01FB
S11302D0E901882311F0611102C0C9DF01C0D8DF30
S11302E0C530D10509F0D9C09801329522952F70F7
S11302F023273F702327A7E4B3E00E943A0A969588
S113030087959695879596958795C0969093490578
S11303108093480587DF980136952795369527956C
S113032036952795A5ECB0E20E943A0AAC015295A5
S113033042954F7045275F7045275093530540936E
S113034052059A01ADECBCEC0E943A0A9695879549
S113035096958795969587959C01220F331F880F54
S1130360991F880F991F880F991F820F931F9A0155
S1130370281B390BC901C09690934B0580934A05FD
S113038051DF03C0C330D10589F59801369527950F
S113039036952795ABE7B4E10E943A0AAC0156952D
S11303A0479550935305409352059A01ADECBCEC2C
S11303B00E943A0A9695879596958795969587957E
S11303C09C01220F331F880F991F880F991F880FD4
S11303D0991F820F931F9A01281B390BC901C096DC
S11303E090934D0580934C051DDF04C0C230D105A8
S11303F009F058C09801ADECBCEC0E943A0AAC017B
S11304005695479556954795569547955093530558
S1130410409352059A010E943A0A969587959695BB
S11304208795969587959C01220F331F880F991FF6
S1130430880F991F880F991F820F931F9A01281BF9
S1130440390BC901C09690934F0580934E05EADE9F
S11304509801ADECBCEC0E943A0A96958795969566
S11304608795969587959C01220F331F880F991FB6
S1130470880F991F880F991F820F931F9801281BBB
S1130480390BC901C0969093510580935005CADE7B
S1130490269764F085E4C6DE09C0C430D10509F0AE
S11304A071CF39CFC130D10599F7D2CFDF91CF9138
S11304B01F910F910895EAE5F4E081E391E49083BC
S11304C0818337968F5F8733D1F7EAE5F4E082E4DE
S11304D096E393A782A714A683E496E392AB81AB39
S11304E013AA84E496E391AF80AF12AEE9E9F4E095
S11304F085E496E3918380831282E0EAF4E086E364
S113050096E490838183379681508033D1F7EAEC67
S1130510F4E085E491E3918380831282E1EDF4E0D9
S113052084E491E3918380831282E8EDF4E083E430
S113053091E3918380831282EFEDF4E082E491E30E
S11305409183808312820895CF93DF938091450530
S113055090914605BC01660F771F68567D4FC09188
S11305603402D0913502C81BD90BCC0FDD1F20E01B
S113057030E0DB01AC0FBD1FFB0180E090E0A9017E
S11305804F5F5F4F9383828313963C932E9312970E
S11305909783868317965C934E9316970196938759
S11305A082871B963C932E931A97978786871F966C
S11305B05C934E931E97729652968530910511F76F
S11305C02F5F3F4F665A7F4F2530310591F6DF91FB
S11305D0CF9108951F920F920FB60F9211248F930B
S11305E09F93AF93BF9380910B0590910C05A091BD
S11305F00D05B0910E050196A11DB11D80930B054B
S113060090930C05A0930D05B0930E05BF91AF9187
S11306109F918F910F900FBE0F901F9018951F926E
S11306200F920FB60F9211248F939F93AF93BF93A2
S113063080910F0590911005A0911105B0911205BC
S11306400196A11DB11D80930F0590931005A093F1
S11306501105B0931205BF91AF919F918F910F90A7
S11306600FBE0F901F9018951F920F920FB60F9206
S113067011248F9381E0809306058F910F900FBE14
S11306800F901F9018951F920F920FB60F9211247E
S11306900BB60F922F933F934F935F936F937F9378
S11306A08F939F93AF93BF93CF93DF93EF93FF9376
S11306B0C091E604D091E7048091D600FE01E85190
S11306C0FB4F80838A3029F090910705911127C050
S11306D016C090910705911136C01DC0833221F5D3
S11306E081E08093080561E0D3DD89E192E0C2DD19
S11306F061E082E0CDDD80E092E0BCDD29C0BE0196
S113070068517B4F89E192E0F8D62196D093E704B3
S1130710C093E6041DC081E08093070519C0909141
S113072007059111DBCF0CC0BE0168517B4F80E0FF
S113073092E0E3D62196D093E704C093E60408C080
S1130740833231F4CDCF909107059111EDCFF8CFDD
S1130750FF91EF91DF91CF91BF91AF919F918F91D5
S11307607F916F915F914F913F912F910F900BBEAD
S11307700F900FBE0F901F90189510BA11BA1092D7
S11307800701109208010895259A2D9A0895269A32
S11307902E9A08956C98749A08956D98759A089590
S11307A06F98779A089581B18F6081B982B1807F03
S11307B082B9EAE0F1E0808188618083EBE0F1E0D6
S11307C08081886180830895AEDCD7DFECDFE2DFCF
S11307D0E4DFDADFDCDFE4CF0895E1EDF0E010825E
S11307E01092D00086E08093D2008FE58093D400ED
S11307F01092D50088E980830895F894EAE6F0E041
S1130800808182608083EC9A78940895F894EAE673
S1130810F0E0808188608083ED9A78940895F8945C
S1130820EAE6F0E0808180688083EF9A7894089506
S1130830E1E2F1E010828FEF8093250191E0909343
S11308402401109229018093280110922B01809396
S11308502A0110922D0180932C0189EA80932001B2
S11308608BE080830895E1E8F0E010828CEF8093C0
S1130870850081E08093840093E0909389008FEF5A
S11308808093880090938B0080938A0090938700D4
S1130890809386008BEA80938000109282008CE023
S11308A080830895EAE7F0E0108210927B0080E2F2
S11308B080937C0080E880BF86E880830895883038
S11308C018F098E090937B008770806280937C009E
S11308D0EAE7F0E0808180648083808184FFFDCF3B
S11308E080917900EAE7F0E0908190619083109222
S11308F07B000895CF93DF93C82FD62F842FDFDF9B
S113090080930505482F50E023E030E06D2F8C2FB5
S1130910DADCDF91CF91089592B1907F8F70982B9C
S113092092B9089580E0F8CF0895BF92CF92DF92F4
S1130930EF92FF920F931F93CF93DF93BC0180E05C
S113094090E0F7D428E431EE42E850E45ED4C5D414
S1130950EB016B01E12CF12C10920B0510920C05AC
S113096010920D0510920E0510920F0510921005AD
S11309701092110510921205B12C8091470588231D
S113098001F140910F05509110056091110570918E
S1130990120522E030E061E082E095DC22E030E004
S11309A0AE0164E082E08FDC40910B0550910C05B0
S11309B060910D0570910E0522E030E067E082E061
S11309C082DC40910B0550910C0560910D057091EE
S11309D00E0500910F05109110052091110530911D
S11309E0120581E04C155D056E057F0508F48B2D1D
S11309F081110AC081E00C151D052E053F0508F480
S1130A008B2D882309F4B9CF8DDFDF91CF911F910E
S1130A100F91FF90EF90DF90CF90BF90089586E004
S1130A207BCF089585E078CF08958AE075CF089547
S1130A3084E072DF1092280184E680932A010895ED
S1130A4082E06ADF84E68093280110922A010895E7
S1130A50CF93DF93EC0186E98093280180932A01E8
S1130A60E1DFCE0162DF8CE680933202DF91CF9129
S1130A700895CF93DF93EC0186E980932801809356
S1130A802A01D3DFCE0151DF82E780933202DF9166
S1130A90CF910895BC0180E090E04BD425EE30ED79
S1130AA04AEA50E4B2D319D4AB01BC0110920B054D
S1130AB010920C0510920D0510920E0580910B05F5
S1130AC090910C05A0910D05B0910E05481759079A
S1130AD06A077B0798F726CF0895F89475DE8DDEB4
S1130AE095DE9DDE7ADEDEDEBEDEA2DE23DB8ADB81
S1130AF078940895CF93DF93EC0191DFCE01CADFA0
S1130B00DF91CF91089583E0DADE8093030582E0DC
S1130B10D6DE8093020581E0D2DE809301058091C8
S1130B204705882361F043E061E081E0E3DE42E0D1
S1130B3065E081E0DFDE41E069E081E0DBCE08953D
S1130B40CF92DF92EF92FF920F931F93CF93DF9395
S1130B50DADF80910205863188F00F2EF8E2EF2E5D
S1130B60FF24F394F02DCFEF0AE211E08091030506
S1130B708631B8F480910105863198F408E211E0D9
S1130B80FF24FA94CAE2D1E00F2EF3E6CF2EF02D23
S1130B900F2EF2E7DF2EF02D0F2EFCE6EF2EF02DB8
S1130BA00BC03DDFF701C083F801C083ACDF809147
S1130BB002058631D8F6E2CF10920405A4DF8091B5
S1130BC002058531D0F4909101059531B0F49091EE
S1130BD00305953190F480913202833629F4F801AB
S1130BE0F082F8821CDF7BC08C3611F421DF77C0E1
S1130BF0823709F074C024DF72C0863170F190919D
S1130C000305963150F190910105963130F182E35C
S1130C1090E070DF87DE1092280110922A01409143
S1130C20090550910A054F5F5F4F50930A054093A1
S1130C30090522E030E061E081E045DB8091320289
S1130C408C3621F482E78093320260C0823709F047
S1130C505DC08CE68093320259C0909103059A31AD
S1130C60A0F0893108F04DC080910105893108F068
S1130C7045C0DEDE80910205893128F444DF80918D
S1130C8002058931D8F3E09232028091030589315B
S1130C9030F5809102058931A0F4809101058A31F3
S1130CA080F0CEDE80910205893128F42CDF80911A
S1130CB002058931D8F3D09232028091030589313B
S1130CC070F4809102058A3150F0809101058931D8
S1130CD030F4F801F082F882A2DEC09232028091F0
S1130CE04705882309F468CF4091090550910A0506
S1130CF022E030E06DE081E0E6DA5ECF993168F21F
S1130D00EECF809103058931E0F2E9CFDF91CF91F5
S1130D101F910F91FF90EF90DF90CF900895AF92C5
S1130D20BF92CF92DF92EF92FF920F931F93CF93D4
S1130D30DF93FC019081992381F15F017F018FEFA3
S1130D40E81AF80A00E010E0C0E0D0E0011511054F
S1130D5071F46E01EFEFCE1ADE0AC501AED3CC0FEB
S1130D60DD1FCD5EDA4F99838883E6010FC0903290
S1130D7069F46E01FFEFCF1ADF0AC7019ED3CC0FCF
S1130D80DD1FCD5EDA4F99838883E6010F5F1F4F25
S1130D90F70191917F019111D9CFDF91CF911F91EB
S1130DA00F91FF90EF90DF90CF90BF90AF90089598
S1130DB0CF93DF9366E372E09DD3EC01892B29F195
S1130DC0CE0101967AD34091420250914302FA0136
S1130DD0EE0FFF1FEE0FFF1FE85BFD4F288130E091
S1130DE021543109318320830197938382834F5F98
S1130DF05F4F509343024093420268E372E080E005
S1130E0090E078D3EC01892BD9F68091420290913D
S1130E104302DF91CF9108954F925F926F927F9238
S1130E208F929F92AF92BF92CF92DF92EF92FF92F6
S1130E300F931F93CF93DF937B018C014150510992
S1130E40FA01EE0FFF1FCF01880F991F880F991F1A
S1130E50880F991FE80FF91FE856FD4FA280B38051
S1130E608480958060E070E03F0142805380C481BB
S1130E70D581C701841995099C0122F422273327BF
S1130E80281B390BA8014C1B5D0BCA01992324F4C0
S1130E9088279927841B950B820F931F97012A1982
S1130EA03B09A90122F444275527421B530B68012F
S1130EB0C818D908960122F4222733272C193D0992
S1130EC0240F351F821B930B2AF4D3016D937C935B
S1130ED04E0152016F5F7F4F34966430710529F6DD
S1130EE0B501C401DF91CF911F910F91FF90EF9055
S1130EF0DF90CF90BF90AF909F908F907F906F9036
S1130F005F904F9008951F93CF93DF9300D01F926B
S1130F101F92CDB7DEB7162F95E0EBE3F2E0DE01CA
S1130F20119601900D929A95E1F7FE01319620E019
S1130F3030E040E050E060E070E09191981301C02F
S1130F40B901911301C0A9012F5F3F4F243031052E
S1130F50A1F79A01261B370BC90122F48827992788
S1130F60821B930B63E070E072D20297E4F4C90130
S1130F700296059768F4332324F485E590E068DD50
S1130F8015C01216130694F485E590E072DD0EC0C8
S1130F901216130624F485E590E05ADD07C085E5B2
S1130FA090E067DD03C08AEA90E063DD10933302CA
S1130FB00F900F900F900F900F90DF91CF911F9192
S1130FC00895AF92BF92CF92DF92EF92FF920F9368
S1130FD01F93CF93DF93161617060CF05FC05B01C7
S1130FE0E82EF92EC12CD12C8701F701828193813F
S1130FF0181619060CF04BC063E78091330283DFA7
S1131000F70182819381992324F464E68091330269
S11310107ADFF801828193811816190654F4C0E02E
S1131020D0E08EDD2196F80182819381C817D9071B
S1131030C4F3F801808191811816190664F562E7FA
S11310408091330260DFF80180819181992324F437
S11310506CE68091330257DFF80180819181181684
S1131060190654F4C0E0D0E06BDD2196F8018081CC
S11310709181C817D907C4F3FFEFCF1ADF0A84E0C0
S1131080E80EF11CAC14BD0409F0AECF07C09923DF
S11310900CF4BBCFCECF9923DCF2EECFDF91CF910E
S11310A01F910F91FF90EF90DF90CF90BF90AF9082
S11310B008956F927F92AF92BF92CF92DF92EF9298
S11310C0FF920F931F93CF93DF93CDB7DEB7C05A30
S11310D0D1090FB6F894DEBF0FBECDBFFEDCE4E449
S11310E0F2E011821082138212822EDAE4D980E0B7
S11310F092E05EDE5C01AA0CBB1C89E192E00FDE8B
S11311001A141B040CF067C08E010F5F1F4FE12CF3
S1131110F12C0F2EF4E4CF2EF2E0DF2EF02DC701D8
S1131120FF200CF401963C0175946794F301EE0FD3
S1131130FF1FEE0FFF1FE85BFD4F22813381D601B5
S113114012964D915C911397241B350B408151816C
S11311506D917C91461B570BD80111965C934E936D
S113116013963C932E9312976081718182819381AF
S11311706093440270934502809346029093470221
S11311809301220F331FF901ED5EFA4F4081518123
S113119043DEF60122813381AC01421B530B9A01D9
S11311A040815181DB01A41BB50BF801B583A483F5
S11311B037832683609344027093450280934602EA
S11311C090934702F2E0EF0EF11C085F1F4FEA1400
S11311D0FB040CF4A4CFB501CE010196F2DE80E04D
S11311E090E0C056DF4F0FB6F894DEBF0FBECDBF00
S11311F0DF91CF911F910F91FF90EF90DF90CF90EF
S1131200BF90AF907F906F9008950CD0E6C0DED071
S113121040F0D5D030F021F45F3F19F0C7C0511130
S113122010C1CAC0EBD098F39923C9F35523B1F385
S1131230951B550BBB27AA2762177307840738F041
S11312409F5F5F4F220F331F441FAA1FA9F333D0A0
S11312500E2E3AF0E0E830D091505040E695001C54
S1131260CAF729D0FE2F27D0660F771F881FBB1F10
S1131270261737074807AB07B0E809F0BB0B802DEA
S1131280BF01FF2793585F4F2AF09E3F510568F036
S11312908DC0D7C05F3FECF3983EDCF3869577951D
S11312A06795B795F7959F5FC9F7880F911D969538
S11312B0879597F90895E1E0660F771F881FBB1F94
S11312C0621773078407BA0720F0621B730B840B41
S11312D0BA0BEE1F88F7E095089598D088F09F57D1
S11312E090F0B92F9927B751A0F0D1F0660F771F6E
S11312F0881F991F1AF0BA95C9F712C0B13081F04E
S11313009FD0B1E008959CC0672F782F8827B85FDD
S113131039F0B93FCCF3869577956795B395D9F7AE
S11313203EF490958095709561957F4F8F4F9F4FB8
S11313300895E89409C097FB3EF4909580957095C4
S113134061957F4F8F4F9F4F9923A9F0F92F96E90D
S1131350BB279395F695879577956795B795F11182
S1131360F8CFFAF4BB0F11F460FF1BC06F5F7F4F1F
S11313708F4F9F4F16C0882311F096E911C0772331
S113138021F09EE8872F762F05C0662371F096E83A
S1131390862F70E060E02AF09A95660F771F881F09
S11313A0DAF7880F9695879597F9089597F99F67C7
S11313B080E870E060E008959FEF80EC08950024D9
S11313C00A941616170618060906089500240A94A6
S11313D012161306140605060895092E0394000C2C
S11313E011F4882352F0BB0F40F4BF2B11F460FFBB
S11313F004C06F5F7F4F8F4F9F4F089557FD9058E4
S1131400440F551F59F05F3F71F04795880F97FBC4
S1131410991F61F09F3F79F087950895121613067E
S11314201406551FF2CF4695F1DF08C016161706AD
S11314301806991FF1CF86957105610508940895E2
S1131440E894BB2766277727CB0197F9089597FB84
S1131450072E16F4009406D077FD08D01AD007FCA6
S113146005D03EF4909581959F4F089570956195B0
S11314707F4F0895A29FB001B39FC001A39F700D39
S1131480811D1124911DB29F700D811D1124911D88
S11314900895AA1BBB1B51E107C0AA1FBB1FA617B7
S11314A0B70710F0A61BB70B881F991F5A95A9F709
S11314B080959095BC01CD010895FC01882799275A
S11314C0E89421912032E9F3293010F02E30C8F34A
S11314D02B3239F02D3231F4689403C040D0820F9E
S11314E0911D219120532A30C8F31EF490958195C3
S11314F09F4F089540E452E00BC0FB01DC010D90C6
S11315000020E9F7119701900D920020E1F708956A
S1131510FA01A191B081009719F41097E1F0CD017F
S1131520DC01CD010D90002011F4C00113C0FB01BA
S11315302191222319F02015D9F7F3CFFB01219132
S1131540201519F41E92119606C02223C1F70D909E
S11315500020A1F7D001FA01A193B08308957AE0A5
S1131560979F902D879F802D910D11240895F894B5
S1051570FFCFA7
S113157243310000000000000000000000000000F1
S113158200000000000000000031360000000000EE
S11315920000000000000000000000000000000045
S11315A20000637301002C002C2000646C73720031
S9030000FC
