S01300004C696E65466F6F77696E672E73726563B0
S113000071C000008FC000008DC000008BC00000D4
S113001089C0000002C30000DBC2000083C00000EE
S113002021C300007FC000007DC000007BC0000031
S113003079C0000077C0000075C0000073C00000E4
S113004071C000006FC000006DC000006BC00000F4
S113005069C0000067C0000065C0000063C0000004
S113006061C000005FC000005DC000005BC0000014
S113007059C0000057C0000055C0000053C0000024
S113008051C000004FC000004DC000004BC0000034
S113009049C0000047C0000045C0000043C0000044
S11300A041C000003FC000003DC000003BC0000054
S11300B039C0000037C0000035C0000033C0000064
S11300C031C000002FC000002DC00000DAC20000C3
S11300D029C0000027C0000025C0000023C0000084
S11300E021C0000011241FBECFEFD1E2DEBFCDBF7F
S11300F000E00CBF12E0A0E0B2E0E8E3F4E100E0CD
S11301000BBF02C007900D92A633B107D9F724E0C4
S1130110A6E3B2E001C01D92A43CB207E1F796D772
S11301200C941A0A6DCF87B1876F87B988B180782C
S113013088B9089586E69EE00197F1F7000040989B
S1130140419880E388B9429AEFEFF7E43197F1F7E9
S113015000C000004298E6E6FEE03197F1F70000A7
S11301604098419888B9429AEFEFF7E43197F1F754
S113017000C000004298E6E6FEE03197F1F7000087
S11301804098419888B9429A8FEF97E40197F1F724
S113019000C000004298E6E6FEE03197F1F7000067
S11301A04098419880E288B9429A8FEF97E401978A
S11301B0F1F700C000004298089598B19F7098B973
S11301C098B1282F207F922B98B940984198429A51
S11301D0EFEFF7E43197F1F700C00000429898B1CF
S11301E09F7098B998B18295807F892B88B940987F
S11301F04198429A8FEF97E40197F1F700C000000D
S11302004298089586E69EE00197F1F7000088E29F
S1130210D4DF81E0D2DF86E0D0DF8EE0CEDF80E87D
S1130220CCCF089598B19F7098B998B1282F207FAA
S1130230922B98B9409A4198429AEFEFF7E431979C
S1130240F1F700C00000429898B19F7098B998B136
S11302508295807F892B88B9409A4198429A8FEF82
S113026097E40197F1F700C000004298089580E8F0
S1130270A4CF0895CF93DF93EC018881882329F0DC
S11302802196D0DF89918111FCCFDF91CF91089520
S1130290823069F018F4813031F00895833059F0D8
S11302A0843069F008958FE7860F87CF08958FEB28
S11302B0860F83CF089583E9860F7FCF089583ED5A
S11302C0860F7BCF08950F931F93CF93DF938A01FB
S11302D0E901882311F0611102C0C9DF01C0D8DF30
S11302E0C530D10509F0D7C09801329522952F70F9
S11302F023273F702327A7E4B3E00E94000A9695C2
S113030087959695879596958795C0969093B90409
S11303108093B80487DF98013695279536952795FD
S113032036952795A5ECB0E20E94000AAC015295DF
S113033042954F7045275F7045275093C3044093FF
S1130340C2049A01ADECBCEC0E94000A9695879514
S113035096958795969587959C01220F331F880F54
S1130360991F880F991F880F991F820F931F9A0155
S1130370281B390BC901C0969093BB048093BA041F
S113038051DF03C0C330D10589F59801369527950F
S113039036952795ABE7B4E10E94000AAC01569567
S11303A047955093C3044093C2049A01ADECBCEC4E
S11303B00E94000A969587959695879596958795B8
S11303C09C01220F331F880F991F880F991F880FD4
S11303D0991F820F931F9A01281B390BC901C096DC
S11303E09093BD048093BC041DDF04C0C230D105CA
S11303F009F056C09801ADECBCEC0E94000AAC01B7
S11304005695479556954795569547955093C304E9
S11304104093C2049A01F4D796958795969587954B
S1130420969587959C01220F331F880F991F880F7B
S1130430991F880F991F820F931F9A01281B390B4C
S1130440C901C0969093BF048093BE04EBDE98016B
S1130450ADECBCECD5D796958795969587959695F2
S113046087959C01220F331F880F991F880F991FAE
S1130470880F991F820F931F9801281B390BC901FC
S1130480C0969093C1048093C004CCDE269764F098
S113049085E4C8DE09C0C430D10509F073CF3BCF71
S11304A0C130D10599F7D3CFDF91CF911F910F912F
S11304B00895ECEFF3E081E391E490838183379630
S11304C08F5F8733D1F7ECEFF3E082E496E393A7F1
S11304D082A714A683E496E392AB81AB13AA84E4C7
S11304E096E391AF80AF12AEEBE3F4E085E496E3DC
S11304F0918380831282E2E4F4E086E396E49083BD
S11305008183379681508033D1F7ECE6F4E085E4BB
S113051091E3918380831282E3E7F4E084E491E33E
S1130520918380831282EAE7F4E083E491E3918388
S113053080831282E1E8F4E082E491E39183808392
S113054012820895CF93DF938091B5049091B604FD
S1130550BC01660F771F665C7D4FC0913302D0915A
S11305603402C81BD90BCC0FDD1F20E030E0DB01C7
S1130570AC0FBD1FFB0180E090E0A9014F5F5F4F0E
S11305809383828313963C932E9312979783868347
S113059017965C934E9316970196938782871B96C2
S11305A03C932E931A97978786871F965C934E9356
S11305B01E97729652968530910511F72F5F3F4F23
S11305C0665A7F4F2530310591F6DF91CF9108951A
S11305D01F920F920FB60F9211248F939F93AF9394
S11305E0BF938091AD049091AE04A091AF04B091FB
S11305F0B0040196A11DB11D8093AD049093AE0487
S1130600A093AF04B093B004BF91AF919F918F9129
S11306100F900FBE0F901F9018951F920F920FB658
S11306200F9211248F939F93AF93BF938091B10442
S11306309091B204A091B304B091B4040196A11DA9
S1130640B11D8093B1049093B204A093B304B0930A
S1130650B404BF91AF919F918F910F900FBE0F90F3
S11306601F9018951F920F920FB60F9211248F931B
S113067081E08093A8048F910F900FBE0F901F907C
S113068018951F920F920FB60F9211240BB60F926A
S11306902F933F934F935F936F937F938F939F9386
S11306A0AF93BF93CF93DF93EF93FF93C0918804ED
S11306B0D09189048091D600FE01E657FB4F8083D8
S11306C08A3029F09091A904911127C016C0909105
S11306D0A904911136C01DC0833221F581E08093B5
S11306E0AA0461E0D5DD89E192E0C4DD61E082E045
S11306F0CFDD80E092E0BEDD29C0BE0166577B4FAE
S113070089E192E08CD62196D0938904C093880421
S11307101DC081E08093A90419C09091A90491118E
S1130720DBCF0CC0BE0166577B4F80E092E077D6EA
S11307302196D0938904C093880408C0833231F48D
S1130740CDCF9091A9049111EDCFF8CFFF91EF9106
S1130750DF91CF91BF91AF919F918F917F916F91D5
S11307605F914F913F912F910F900BBE0F900FBE51
S11307700F901F90189510BA11BA10920701109299
S113078008010895259A2D9A0895269A2E9A089577
S11307906C98749A08956D98759A08956F98779ADD
S11307A0089581B18F6081B982B1807F82B9EAE016
S11307B0F1E0808188618083EBE0F1E080818861F1
S11307C080830895B0DCD7DFECDFE2DFE4DFDADF3B
S11307D0DCDFE4CF0895E1EDF0E010821092D00068
S11307E086E08093D2008FE58093D4001092D500E8
S11307F088E980830895F894EAE6F0E080818260D5
S11308008083EC9A78940895F894EAE6F0E0808185
S113081088608083ED9A78940895F894EAE6F0E08D
S1130820808180688083EF9A78940895E1E2F1E012
S113083010828FEF8093250191E090932401109210
S113084029018093280110922B0180932A01109290
S11308502D0180932C0189EA809320018BE0808311
S11308600895E1E8F0E010828CEF8093850081E048
S11308708093840093E0909389008FEF80938800A5
S113088090938B0080938A009093870080938600D6
S11308908BEA80938000109282008CE0808308951C
S11308A0EAE7F0E0108210927B0080E280937C0003
S11308B080E880BF86E8808308952AE530E0A901B6
S11308C0481B5109BA0122F466277727641B750B6C
S11308D010928B0070E080E090E004D52BE734E1C7
S11308E04EEE5FE36BD420E030E04CE052E402D4FF
S11308F0CDD460938A00089583E0809389008FEFBC
S113090080938800089583E080938B008FEF809319
S11309108A000895883018F098E090937B008770DF
S1130920806280937C00EAE7F0E0808180648083C9
S1130930808184FFFDCF80917900EAE7F0E0908127
S11309409061908310927B000895CF93DF93C82F1A
S1130950D62F842FDFDF8093A704482F50E023E0B5
S113096030E06D2F8C2FAFDCDF91CF91089592B1E1
S1130970907F8F70982B92B9089580E0F8CF0895F6
S1130980BF92CF92DF92EF92FF920F931F93CF9378
S1130990DF93BC0180E090E0A5D428E431EE42E886
S11309A050E40CD473D4EB016B01E12CF12C1092C4
S11309B0AD041092AE041092AF041092B0041092E1
S11309C0B1041092B2041092B3041092B404B12C86
S11309D08091B704882301F14091B1045091B2048D
S11309E06091B3047091B40422E030E061E082E0ED
S11309F06ADC22E030E0AE0164E082E064DC409135
S1130A00AD045091AE046091AF047091B00422E043
S1130A1030E067E082E057DC4091AD045091AE04D1
S1130A206091AF047091B0040091B1041091B204CC
S1130A302091B3043091B40481E04C155D056E053A
S1130A407F0508F48B2D81110AC081E00C151D056A
S1130A502E053F0508F48B2D882309F4B9CF8DDFCB
S1130A60DF91CF911F910F91FF90EF90DF90CF9086
S1130A70BF90089586E07BCF089589E078CF0895EC
S1130A8085E075CF08958AE072CF089584E06FDF22
S1130A901092280188EC80932A01089582E067DF90
S1130AA088EC8093280110922A010895CF93DF9354
S1130AB0EC0186E98093280180932A01E1DFCE01CD
S1130AC05FDF8CE680933202DF91CF910895CF935C
S1130AD0DF93EC0186E98093280180932A01D3DF18
S1130AE0CE014EDF82E780933202DF91CF910895E9
S1130AF081E03DCF089588E03ACF0895CF93DF9306
S1130B00EC01C4DFCE01880F991F3ADFDF91CF914A
S1130B100895CF93DF93EC01C1DFCE01880F991FB5
S1130B202FDFDF91CF910895CF93DF93EC01E0DFC6
S1130B30CE01880F991F24DFDF91CF910895CF93C1
S1130B40DF93EC01D8DFCE01880F991F19DFDF9105
S1130B50CF910895BC0180E090E0C4D325EE30ED40
S1130B604AEA50E42BD392D3AB01BC011092AD04FA
S1130B701092AE041092AF041092B0048091AD04B0
S1130B809091AE04A091AF04B091B00448175907F6
S1130B906A077B0798F7F1CE0895F89413DE2BDEED
S1130BA033DE3BDE18DE7CDE5CDE40DEC3DA2ADBCD
S1130BB078940895CF93DF93EC015FDFCE01CADF11
S1130BC0DF91CF910895CF93DF93EC0153DFCE01F2
S1130BD0C1DFDF91CF91089583E09CDE8093A5046B
S1130BE082E098DE8093A40481E094DE8093A304E1
S1130BF08091B704882361F043E061E081E0A5DEE1
S1130C0042E065E081E0A1DE41E069E081E09DCE63
S1130C100895CF92DF92EF92FF920F931F93CF9399
S1130C20DF93DADF8091A404863188F00F2EF8E296
S1130C30EF2EFF24F394F02DCFEF0AE211E0809120
S1130C40A5048631B8F48091A304863198F408E2AF
S1130C5011E0FF24FA94CAE2D1E00F2EF3E6CF2E7E
S1130C60F02D0F2EF2E7DF2EF02D0F2EFCE6EF2EE7
S1130C70F02D0BC0FFDEF701C083F801C083ACDFA9
S1130C808091A4048631D8F6E2CF1092A604A4DFA2
S1130C908091A4048531D0F49091A3049531B0F4EB
S1130CA09091A504953190F480913202833629F411
S1130CB0F801F082F882DEDE7DC08C3611F4E6DEC7
S1130CC079C0823709F076C0E9DE74C0863170F1EC
S1130CD09091A504963150F19091A304963130F18E
S1130CE082E390E070DF49DE1092280110922A011D
S1130CF04091AB045091AC044F5F5F4F5093AC04F0
S1130D004093AB0422E030E06EE081E0DCDA8091D5
S1130D1032028C3621F482E78093320262C0823739
S1130D2009F05FC08CE6809332025BC09091A50409
S1130D309A31A8F0893108F04FC08091A304893119
S1130D4008F047C0A3DE48DF8091A404893128F469
S1130D5043DF8091A4048931D8F3E0923202809178
S1130D60A504893138F58091A4048931A8F48091CF
S1130D70A3048A3188F092DE2FDF8091A4048931A4
S1130D8028F42ADF8091A4048931D8F3D092320266
S1130D908091A504893170F48091A4048A3150F0C3
S1130DA08091A304893130F4F801F082F88262DE84
S1130DB0C09232028091B704882309F466CF40912F
S1130DC0AB045091AC0422E030E06EE081E07BDAC9
S1130DD05CCF993160F2EECF8091A5048931E0F2C5
S1130DE0E9CFDF91CF911F910F91FF90EF90DF90AA
S1130DF0CF90089545DE86E98093280180932A01E7
S1130E002FEF8FEF98E0215080409040E1F700C031
S1130E100000E2DEE1DE8091A4048631D8F3ADDD8A
S1130E208AEF8093280180932A018CE68093320212
S1130E3008951092890083E5809388002FEF8FEF47
S1130E4098E0215080409040E1F700C0000080E02D
S1130E5034DD2FEF8FEF98E0215080409040E1F790
S1130E6000C0000008950F931F93CF93DF932FEFDB
S1130E708FEF98E0215080409040E1F700C00000DF
S1130E8009E810E0F8011082C8E8D0E083E588831F
S1130E90FFEF2FEF83E2F15020408040E1F700C0E4
S1130EA000008AE50ADD9FEFEFE7FFE19150E040A3
S1130EB0F040E1F700C00000F801108283E288836B
S1130EC0DF91CF911F910F910895B3DF1CDD14CDF5
S1130ED00895CF92DF92EF92FF920F931F93CF93D7
S1130EE08C010F2EF8E2CF2EDD24D394F02DC8EC24
S1130EF0F601C0830F2EFAE2EF2EFF24F394F02DB7
S1130F00F701C083FBDDFFEF2FEF88E0F1502040B5
S1130F108040E1F700C0000030DDD7DF9FEFEFEF46
S1130F20F8E09150E040F040E1F700C00000F60125
S1130F30C083F701C083C801F7DDCF911F910F91E2
S1130F40FF90EF90DF90CF900895CF93DF93EC0163
S1130F5088EC8093280180932A0182E390E033DEB9
S1130F601092890083E2809388002FEF8FEF98E03E
S1130F70215080409040E1F700C0000080E09DDCFB
S1130F80C233D1050CF040C08EE190E0B7DD82E3BE
S1130F9090E019DE82E890E09ADD2FEF8FEF98E081
S1130FA0215080409040E1F700C0000086E490E0CA
S1130FB001DEE3DC1092890083E5809388008EE1F2
S1130FC090E001DEC4E18C2F78DC26E686EE90E02A
S1130FD0215080409040E1F7CF5FCB35A1F71092CC
S1130FE0890083E2809388002FEF8FEF98E02150EF
S1130FF080409040E1F700C0000080E590E056DDBD
S11310008AE590E0D7DD1FC0CE0199DD2FEF8FEF89
S113101098E0215080409040E1F700C000008EE14C
S113102090E0C8DDAADC1FDF2FEF8FEF98E021509E
S113103080409040E1F700C000008EE190E0C3DD05
S1131040CE015CDDD7DEDF91CF910895A6DDE6E326
S1131050F2E0118210821382128274DA2ADA8EE1AB
S113106090E057DD2FEF8FEF9CE2215080409040BD
S1131070E1F700C000008EE091E04BDD2FEF8FEF31
S11310809CE2215080409040E1F700C000008AE5D6
S113109014DC2FEF8FEF9CE2215080409040E1F769
S11310A000C0000080E009DC2FEF8FEF9CE22150AC
S11310B080409040E1F700C00000BBDEAADD2FEFC6
S11310C08FEF98E0215080409040E1F700C000008D
S11310D088E290E03ADF9DDD2FEF8FEF98E021501A
S11310E080409040E1F700C000008DE290E0F1DE26
S11310F0B6CF5058BB27AA270ED048C139D130F0FB
S11311003ED120F031F49F3F11F41EF42EC10EF4B1
S1131110E095E7FB24C1E92F4AD180F3BA176207AF
S113112073078407950718F071F49EF562C10EF4F5
S1131130E0950B2EBA2FA02D0B01B90190010C01E3
S1131140CA01A0011124FF27591B99F0593F50F4FB
S1131150503E68F11A16F040A22F232F342F442753
S1131160585FF3CF469537952795A795F04053954B
S1131170C9F77EF41F16BA0B620B730B840BBAF01B
S11311809150A1F0FF0FBB1F661F771F881FC2F786
S11311900EC0BA0F621F731F841F48F4879577959A
S11311A06795B795F7959E3F08F0B3CF9395880F51
S11311B008F09927EE0F9795879508950CD0E6C00F
S11311C0DED040F0D5D030F021F45F3F19F0C7C035
S11311D0511110C1CAC0EBD098F39923C9F3552318
S11311E0B1F3951B550BBB27AA2762177307840716
S11311F038F09F5F5F4F220F331F441FAA1FA9F3CC
S113120033D00E2E3AF0E0E830D091505040E695BD
S1131210001CCAF729D0FE2F27D0660F771F881F1E
S1131220BB1F261737074807AB07B0E809F0BB0B0D
S1131230802DBF01FF2793585F4F2AF09E3F510531
S113124068F08DC0D7C05F3FECF3983EDCF3869521
S113125077956795B795F7959F5FC9F7880F911DA7
S11312609695879597F90895E1E0660F771F881F93
S1131270BB1F621773078407BA0720F0621B730B46
S1131280840BBA0BEE1F88F7E095089598D088F088
S11312909F5790F0B92F9927B751A0F0D1F0660F5E
S11312A0771F881F991F1AF0BA95C9F712C0B13079
S11312B081F09FD0B1E008959CC0672F782F8827D4
S11312C0B85F39F0B93FCCF3869577956795B395B8
S11312D0D9F73EF490958095709561957F4F8F4F27
S11312E09F4F0895E89409C097FB3EF4909580952C
S11312F0709561957F4F8F4F9F4F9923A9F0F92FD8
S113130096E9BB279395F695879577956795B79555
S1131310F111F8CFFAF4BB0F11F460FF1BC06F5F3B
S11313207F4F8F4F9F4F16C0882311F096E911C04D
S1131330772321F09EE8872F762F05C0662371F06E
S113134096E8862F70E060E02AF09A95660F771F82
S1131350881FDAF7880F9695879597F9089597F976
S11313609F6780E870E060E008959FEF80EC089547
S113137000240A9416161706180609060895002470
S11313800A9412161306140605060895092E0394EA
S1131390000C11F4882352F0BB0F40F4BF2B11F45E
S11313A060FF04C06F5F7F4F8F4F9F4F089557FDBD
S11313B09058440F551F59F05F3F71F04795880FBF
S11313C097FB991F61F09F3F79F087950895121656
S11313D013061406551FF2CF4695F1DF08C0161602
S11313E017061806991FF1CF8695710561050894B3
S11313F00895E894BB2766277727CB0197F90895CA
S1131400A29FB001B39FC001A39F700D811D112441
S1131410911DB29F700D811D1124911D0895FB0132
S1131420DC010D900020E9F7119701900D92002046
S10B1430E1F70895F894FFCFE1
S1131438433100000000000000000000000000002C
S1131448000000000000000000313100000000002E
S11314580000000000000000000000000000000080
S109146800006301000016
S9030000FC
