S01300004C696E65466F6F77696E672E73726563B0
S113000071C000008EC000008CC000008AC00000D7
S113001088C00000C0C2000099C2000082C0000075
S1130020DFC200007EC000007CC000007AC0000077
S113003078C0000076C0000074C0000072C00000E8
S113004070C000006EC000006CC000006AC00000F8
S113005068C0000066C0000064C0000062C0000008
S113006060C000005EC000005CC000005AC0000018
S113007058C0000056C0000054C0000052C0000028
S113008050C000004EC000004CC000004AC0000038
S113009048C0000046C0000044C0000042C0000048
S11300A040C000003EC000003CC000003AC0000058
S11300B038C0000036C0000034C0000032C0000068
S11300C030C000002EC000002CC0000098C2000008
S11300D028C0000026C0000024C0000022C0000088
S11300E020C0000011241FBECFEFD1E2DEBFCDBF80
S11300F000E00CBF12E0A0E0B2E0ECE5FAE000E0C2
S11301000BBF02C007900D92A230B107D9F722E0CD
S1130110A2E0B2E001C01D92AE36B207E1F768D4A6
S11301209BC46ECF87B1876F87B988B1807888B94F
S1130130089586E69EE00197F1F700004098419803
S113014080E388B9429AEFEFF7E43197F1F700C002
S113015000004298E6E6FEE03197F1F7000040988F
S1130160419888B9429AEFEFF7E43197F1F700C06C
S113017000004298E6E6FEE03197F1F7000040986F
S1130180419888B9429A8FEF97E40197F1F700C03C
S113019000004298E6E6FEE03197F1F7000040984F
S11301A0419880E288B9429A8FEF97E40197F1F77A
S11301B000C000004298089598B19F7098B998B112
S11301C0282F207F922B98B940984198429AEFEFBC
S11301D0F7E43197F1F700C00000429898B19F709E
S11301E098B998B18295807F892B88B940984198B5
S11301F0429A8FEF97E40197F1F700C0000042980C
S1130200089586E69EE00197F1F7000088E2D4DFC6
S113021081E0D2DF86E0D0DF8EE0CEDF80E8CCCF95
S1130220089598B19F7098B998B1282F207F922B88
S113023098B9409A4198429AEFEFF7E43197F1F771
S113024000C00000429898B19F7098B998B1829507
S1130250807F892B88B9409A4198429A8FEF97E41E
S11302600197F1F700C000004298089580E8A4CFF8
S11302700895CF93DF93EC018881882329F0219698
S1130280D0DF89918111FCCFDF91CF910895823025
S113029069F018F4813031F00895833059F08430D6
S11302A069F008958FE7860F87CF08958FEB860F47
S11302B083CF089583E9860F7FCF089583ED860F5A
S11302C07BCF08950F931F93CF93DF938A01E901A6
S11302D0882311F0611102C0C9DF01C0D8DFC53025
S11302E0D10509F0D1C09801329522952F702327AA
S11302F03F702327A7E4B3E095D396958795969509
S1130300879596958795C096909363028093620231
S113031088DF980136952795369527953695279544
S1130320A5ECB0E27FD3AC01529542954F704527BE
S11303305F70452750936D0240936C029A01ADECB7
S1130340BCEC70D3969587959695879596958795E9
S11303509C01220F331F880F991F880F991F880F44
S1130360991F820F931F9A01281B390BC901C0964C
S1130370909365028093640254DF03C0C330D105B7
S113038079F598013695279536952795ABE7B4E12D
S113039049D3AC015695479550936D0240936C0236
S11303A09A01ADECBCEC3ED39695879596958795CE
S11303B0969587959C01220F331F880F991F880FEC
S11303C0991F880F991F820F931F9A01281B390BBD
S11303D0C901C096909367028093660222DF04C02D
S11303E0C230D10509F055C09801ADECBCEC1AD36C
S11303F0AC01569547955695479556954795509314
S11304006D0240936C029A010DD39695879596954B
S11304108795969587959C01220F331F880F991F06
S1130420880F991F880F991F820F931F9A01281B09
S1130430390BC901C0969093690280936802F1DE7A
S11304409801ADECBCECEED2969587959695879580
S1130450969587959C01220F331F880F991F880F4B
S1130460991F880F991F820F931F9801281B390B1E
S1130470C901C09690936B0280936A02D2DE2697DC
S113048064F085E4CEDE09C0C430D10509F076CF2E
S113049040CFC130D10599F7D3CFDF91CF911F91D0
S11304A00F91089510BA11BA109207011092080121
S11304B00895E1EDF0E010821092D00086E0809380
S11304C0D2008FE58093D4001092D50088E9808310
S11304D008956C98749A08956D98759A08956F9814
S11304E0779A089581B18F6081B982B1807F82B992
S11304F0EAE0F1E0808188618083EBE0F1E08081D3
S1130500886180830895D5DF0DDECCDFEBDFE1DF8A
S1130510E3DFE5CF0895F894EAE6F0E080818260B5
S11305208083EC9A78940895F894EAE6F0E0808168
S113053088608083ED9A78940895F894EAE6F0E070
S1130540808180688083EF9A789408951F920F9237
S11305500FB60F9211248F939F93AF93BF93809103
S1130560020290910302A0910402B0910502019647
S1130570A11DB11D8093020290930302A093040273
S1130580B0930502BF91AF919F918F910F900FBED1
S11305900F901F9018951F920F920FB60F9211246F
S11305A08F939F93AF93BF9380910602909107021C
S11305B0A0910802B09109020196A11DB11D80937A
S11305C0060290930702A0930802B0930902BF9118
S11305D0AF919F918F910F900FBE0F901F90189520
S11305E01F920F920FB60F9211248F9381E0809384
S11305F05E028F910F900FBE0F901F9018951F925F
S11306000F920FB60F9211240BB60F922F933F93B4
S11306104F935F936F937F938F939F93AF93BF9306
S1130620CF93DF93EF93FF93C0910A02D0910B0213
S11306308091D600FE01E25CFD4F80838A3029F070
S113064090915F02911127C016C090915F029111A1
S113065036C01DC0833221F581E08093600261E0E1
S113066016DE85E292E005DE61E082E010DE8CE0D9
S113067092E0FFDD29C0BE01625C7D4F85E292E01D
S1130680E0D12196D0930B02C0930A021DC081E0F1
S113069080935F0219C090915F029111DBCF0CC06F
S11306A0BE01625C7D4F8CE092E0CBD12196D09369
S11306B00B02C0930A0208C0833231F4CDCF90916B
S11306C05F029111EDCFF8CFFF91EF91DF91CF91C0
S11306D0BF91AF919F918F917F916F915F914F9156
S11306E03F912F910F900BBE0F900FBE0F901F9054
S11306F01895E1E2F1E010828FEF8093250191E0FB
S113070090932401109229018093280110922B01C7
S113071080932A0110922D0180932C0189EA809301
S113072020018BE080830895EAE7F0E010821092C4
S11307307B0080E280937C0080E880BF86E8808331
S11307400895883018F098E090937B008770806259
S113075080937C00EAE7F0E080818064808380817C
S113076084FFFDCF80917900EAE7F0E09081906109
S1130770908310927B000895CF93DF93C82FD62FD8
S1130780842FDFDF80935B02482F50E023E030E0CA
S11307906D2F8C2F97DDDF91CF91089592B1907FCB
S11307A08F70982B92B9089580E0F8CF089586E071
S11307B0F5CF089584E0F2DF1092280184E6809357
S11307C02A01089582E0EADF84E6809328011092EA
S11307D02A010895F89497DE9EDEA6DEAEDEA4DF3D
S11307E088DFA7DC0EDD7894089583E0AADF809388
S11307F0590282E0A6DF8093580281E0A2DF809351
S1130800570280916102882361F043E061E081E056
S1130810B3DF42E065E081E0AFDF41E069E081E021
S1130820ABCF0895CF92DF92EF92FF920F931F9375
S1130830CF93DF93DADF80915802863188F00F2E50
S1130840F8E2EF2EFF24F394F02DCFEF0AE211E04B
S1130850809159028631B8F480915702863198F418
S113086008E211E0FF24FA94CAE2D1E00F2EF3E685
S1130870CF2EF02D0F2EF2E7DF2EF02D0F2EFCE6FB
S1130880EF2EF02D0BC093DFF701C083F801C08376
S1130890ACDF809158028631D8F6E2CF10925A022A
S11308A0A4DF809158028531D0F49091570295319C
S11308B0B0F490915902953190F4809100028336FE
S11308C029F4F801F082F88272DF72C08C3611F4D8
S11308D071DF6EC0823709F06BC074DF69C0863186
S11308E028F190915902963108F19091570296316E
S11308F0E8F05ADF1092280110922A0180915C02DC
S113090090915D02019690935D0280935C028091C8
S113091000028C3621F482E78093000260C08237A3
S113092009F05DC08CE68093000259C09091590291
S11309309A31A0F0893108F04DC080915702893175
S113094008F045C037DF80915802893128F44DDF23
S1130950809158028931D8F3E092000280915902C3
S1130960893130F5809158028931A0F48091570281
S11309708A3180F027DF80915802893128F435DFED
S1130980809158028931D8F3D092000280915902A3
S1130990893170F4809158028A3150F08091570265
S11309A0893130F4F801F082F88201DFC09200024C
S11309B080916102882309F471CF40915C025091C7
S11309C05D0222E030E06DE081E07CDC67CF9931AC
S11309D068F2EECF809159028931E0F2E9CFDF91DC
S11309E0CF911F910F91FF90EF90DF90CF900895DA
S11309F0F1DE80916002882321F080915E028111F2
S1130A0006C086E69EE00197F1F70000F2CF9FEF63
S1130A102FEF88E0915020408040E1F700C00000B3
S1130A2001DFF5CFA29FB001B39FC001A39F700D5A
S1130A30811D1124911DB29F700D811D1124911DE2
S1130A400895FB01DC010D900020E9F71197019056
S10F0A500D920020E1F70895F894FFCF08
S1050A5C630031
S9030000FC
