:1000000071C000008FC000008DC000008BC00000D8
:1000100089C0000009C30000E2C2000083C00000E4
:1000200028C300007FC000007DC000007BC000002E
:1000300079C0000077C0000075C0000073C00000E8
:1000400071C000006FC000006DC000006BC00000F8
:1000500069C0000067C0000065C0000063C0000008
:1000600061C000005FC000005DC000005BC0000018
:1000700059C0000057C0000055C0000053C0000028
:1000800051C000004FC000004DC000004BC0000038
:1000900049C0000047C0000045C0000043C0000048
:1000A00041C000003FC000003DC000003BC0000058
:1000B00039C0000037C0000035C0000033C0000068
:1000C00031C000002FC000002DC00000E1C20000C0
:1000D00029C0000027C0000025C0000023C0000088
:1000E00021C0000011241FBECFEFD1E2DEBFCDBF83
:1000F00000E00CBF12E0A0E0B2E0ECE8F6E100E0C6
:100100000BBF02C007900D92A034B107D9F725E0CC
:10011000A0E4B2E001C01D92A435B207E1F7F9D71F
:100120000C94440B6DCF87B1876F87B988B1807805
:1001300088B9089586E69EE00197F1F7000040989F
:10014000419880E388B9429AEFEFF7E43197F1F7ED
:1001500000C000004298E6E6FEE03197F1F70000AB
:100160004098419888B9429AEFEFF7E43197F1F758
:1001700000C000004298E6E6FEE03197F1F700008B
:100180004098419888B9429A8FEF97E40197F1F728
:1001900000C000004298E6E6FEE03197F1F700006B
:1001A0004098419880E288B9429A8FEF97E401978E
:1001B000F1F700C000004298089598B19F7098B977
:1001C00098B1282F207F922B98B940984198429A55
:1001D000EFEFF7E43197F1F700C00000429898B1D3
:1001E0009F7098B998B18295807F892B88B9409883
:1001F0004198429A8FEF97E40197F1F700C0000011
:100200004298089586E69EE00197F1F7000088E2A3
:10021000D4DF81E0D2DF86E0D0DF8EE0CEDF80E881
:10022000CCCF089598B19F7098B998B1282F207FAE
:10023000922B98B9409A4198429AEFEFF7E43197A0
:10024000F1F700C00000429898B19F7098B998B13A
:100250008295807F892B88B9409A4198429A8FEF86
:1002600097E40197F1F700C000004298089580E8F4
:10027000A4CF089581E0A1DF80E89FCF0895CF93B8
:10028000DF93EC018881882329F02196CBDF8991C7
:100290008111FCCFDF91CF910895823069F018F47D
:1002A000813031F00895833059F0843069F0089539
:1002B0008FE7860F82CF08958FEB860F7ECF08954C
:1002C00083E9860F7ACF089583ED860F76CF089560
:1002D0000F931F93CF93DF938A01E901882311F0D5
:1002E000611102C0C4DF01C0D8DFC530D10509F0FB
:1002F000D9C09801329522952F7023273F7023276C
:10030000A7E4B3E00E94C70A9695879596958795CE
:1003100096958795C096909349058093480582DF0E
:100320009801369527953695279536952795A5EC0E
:10033000B0E20E94C70AAC01529542954F70452722
:100340005F70452750935305409352059A01ADECD9
:10035000BCEC0E94C70A96958795969587959695C9
:1003600087959C01220F331F880F991F880F991FB3
:10037000880F991F820F931F9A01281B390BC901FF
:10038000C09690934B0580934A054CDF03C0C33061
:10039000D10589F598013695279536952795ABE7D0
:1003A000B4E10E94C70AAC01569547955093530596
:1003B000409352059A01ADECBCEC0E94C70A969599
:1003C000879596958795969587959C01220F331F63
:1003D000880F991F880F991F880F991F820F931FED
:1003E0009A01281B390BC901C09690934D05809343
:1003F0004C0518DF04C0C230D10509F058C098017F
:10040000ADECBCEC0E94C70AAC01569547955695D9
:1004100047955695479550935305409352059A0139
:100420000E94C70A96958795969587959695879584
:100430009C01220F331F880F991F880F991F880F67
:10044000991F820F931F9A01281B390BC901C0966F
:1004500090934F0580934E05E5DE9801ADECBCEC22
:100460000E94C70A96958795969587959695879544
:100470009C01220F331F880F991F880F991F880F27
:10048000991F820F931F9801281B390BC901C09631
:100490009093510580935005C5DE269764F085E45E
:1004A000C1DE09C0C430D10509F071CF39CFC130E8
:1004B000D10599F7D2CFDF91CF911F910F91089578
:1004C000EAE5F4E081E391E49083818337968F5FDE
:1004D0008733D1F7EAE5F4E082E496E393A782A7B5
:1004E00014A683E496E392AB81AB13AA84E496E36B
:1004F00091AF80AF12AEE9E9F4E085E496E3918331
:1005000080831282E0EAF4E086E396E490838183BC
:10051000379681508033D1F7EAECF4E085E491E33B
:10052000918380831282E1EDF4E084E491E391838E
:1005300080831282E8EDF4E083E491E39183808389
:100540001282EFEDF4E082E491E3918380831282E2
:100550000895CF93DF938091450590914605BC01A6
:10056000660F771F68567D4FC0913402D0913502D7
:10057000C81BD90BCC0FDD1F20E030E0DB01AC0F36
:10058000BD1FFB0180E090E0A9014F5F5F4F9383A7
:10059000828313963C932E931297978386831796A4
:1005A0005C934E9316970196938782871B963C9394
:1005B0002E931A97978786871F965C934E931E9764
:1005C000729652968530910511F72F5F3F4F665A0C
:1005D0007F4F2530310591F6DF91CF9108951F921D
:1005E0000F920FB60F9211248F939F93AF93BF93E7
:1005F00080910B0590910C05A0910D05B0910E0511
:100600000196A11DB11D80930B0590930C05A0933D
:100610000D05B0930E05BF91AF919F918F910F90F3
:100620000FBE0F901F9018951F920F920FB60F924A
:1006300011248F939F93AF93BF9380910F05909157
:100640001005A0911105B09112050196A11DB11DD3
:1006500080930F0590931005A0931105B093120598
:10066000BF91AF919F918F910F900FBE0F901F90F0
:1006700018951F920F920FB60F9211248F9381E05D
:10068000809306058F910F900FBE0F901F901895C5
:100690001F920F920FB60F9211240BB60F922F9349
:1006A0003F934F935F936F937F938F939F93AF93FA
:1006B000BF93CF93DF93EF93FF93C091E604D09164
:1006C000E7048091D600FE01E851FB4F80838A3019
:1006D00029F090910705911127C016C09091070548
:1006E000911136C01DC0833221F581E08093080549
:1006F00061E0D3DD89E192E0C2DD61E082E0CDDD41
:1007000080E092E0BCDD29C0BE0168517B4F89E1E9
:1007100092E080D72196D093E704C093E6041DC0F1
:1007200081E08093070519C0909107059111DBCFF7
:100730000CC0BE0168517B4F80E092E06BD72196E0
:10074000D093E704C093E60408C0833231F4CDCFE0
:10075000909107059111EDCFF8CFFF91EF91DF91C7
:10076000CF91BF91AF919F918F917F916F915F9149
:100770004F913F912F910F900BBE0F900FBE0F9096
:100780001F90189510BA11BA109207011092080123
:100790000895259A2D9A0895269A2E9A08956C9870
:1007A000749A08956D98759A08956F98779A089538
:1007B00081B18F6081B982B1807F82B9EAE0F1E0D6
:1007C000808188618083EBE0F1E0808188618083B3
:1007D0000895A9DCD7DFECDFE2DFE4DFDADFDCDF7E
:1007E000E4CF0895E1EDF0E010821092D00086E0B1
:1007F0008093D2008FE58093D4001092D50088E9D1
:1008000080830895F894EAE6F0E080818260808336
:10081000EC9A78940895F894EAE6F0E08081886094
:100820008083ED9A78940895F894EAE6F0E0808168
:1008300080688083EF9A78940895E1E2F1E0108275
:100840008FEF8093250191E090932401109229016C
:100850008093280110922B0180932A0110922D0180
:1008600080932C0189EA809320018BE08083089596
:10087000E1E8F0E010828CEF8093850081E08093C6
:10088000840093E0909389008FEF80938800909389
:100890008B0080938A0090938700809386008BEA78
:1008A00080938000109282008CE080830895EAE7B4
:1008B000F0E0108210927B0080E280937C0080E860
:1008C00080BF86E880830895883018F098E0909380
:1008D0007B008770806280937C00EAE7F0E0808193
:1008E00080648083808184FFFDCF80917900EAE776
:1008F000F0E090819061908310927B000895CF93F7
:10090000DF93C82FD62F842FDFDF80930505482F74
:1009100050E023E030E06D2F8C2FDADCDF91CF91B7
:10092000089592B1907F8F70982B92B9089580E0CE
:10093000F8CF0895BF92CF92DF92EF92FF920F937C
:100940001F93CF93DF93BC0180E090E07FD528E434
:1009500031EE42E850E4E6D44DD5EB016B01E12CD9
:10096000F12C10920B0510920C0510920D051092AF
:100970000E0510920F05109210051092110510929D
:100980001205B12C80914705882301F140910F0594
:1009900050911005609111057091120522E030E030
:1009A00061E082E095DC22E030E0AE0164E082E0CC
:1009B0008FDC40910B0550910C0560910D057091F5
:1009C0000E0522E030E067E082E082DC40910B051A
:1009D00050910C0560910D0570910E0500910F0569
:1009E00010911005209111053091120581E04C15F0
:1009F0005D056E057F0508F48B2D81110AC081E02D
:100A00000C151D052E053F0508F48B2D882309F4D0
:100A1000B9CF8DDFDF91CF911F910F91FF90EF90B4
:100A2000DF90CF90BF90089586E07BCF089585E05A
:100A300078CF08958AE075CF089584E072DF109230
:100A4000280188EC80932A01089582E06ADF88EC0F
:100A50008093280110922A010895CF93DF93EC012F
:100A600086E98093280180932A01E1DFCE0162DFCD
:100A70008CE680933202DF91CF910895CF93DF937C
:100A8000EC0186E98093280180932A01D3DFCE010F
:100A900051DF82E780933202DF91CF910895BC014C
:100AA00080E090E0D3D425EE30ED4AEA50E43AD429
:100AB000A1D4AB01BC0110920B0510920C05109251
:100AC0000D0510920E0580910B0590910C05A091DB
:100AD0000D05B0910E05481759076A077B0798F76F
:100AE00026CF0895F89475DE8DDE95DE9DDE7ADEE4
:100AF000DEDEBEDEA2DE1EDB85DB78940895CF93BA
:100B0000DF93EC0191DFCE01CADFDF91CF91089531
:100B100083E0DADE8093030582E0D6DE809302056F
:100B200081E0D2DE8093010580914705882361F042
:100B300043E061E081E0E3DE42E065E081E0DFDEAA
:100B400041E069E081E0DBCE0895CF92DF92EF9241
:100B5000FF920F931F93CF93DF93DADF809102050B
:100B6000863188F00F2EF8E2EF2EFF24F394F02D5B
:100B7000CFEF0AE211E0809103058631B8F480914D
:100B80000105863198F408E211E0FF24FA94CAE2E4
:100B9000D1E00F2EF3E6CF2EF02D0F2EF2E7DF2E51
:100BA000F02D0F2EFCE6EF2EF02D0BC03DDFF701F0
:100BB000C083F801C083ACDF809102058631D8F68E
:100BC000E2CF10920405A4DF809102058531D0F4B4
:100BD000909101059531B0F490910305953190F411
:100BE00080913202833629F4F801F082F8821CDF0A
:100BF0007DC08C3611F421DF79C0823709F076C0D0
:100C000024DF74C0863170F190910305963150F164
:100C100090910105963130F182E390E070DF87DE3C
:100C20001092280110922A014091090550910A055D
:100C30004F5F5F4F50930A054093090522E030E073
:100C40006EE081E045DB809132028C3621F482E750
:100C50008093320262C0823709F05FC08CE68093D5
:100C600032025BC0909103059A31A8F0893108F0F7
:100C70004FC080910105893108F047C0DEDE48DFB2
:100C800080910205893128F443DF80910205893182
:100C9000D8F3E092320280910305893138F58091D2
:100CA00002058931A8F4809101058A3188F0CDDEF2
:100CB0002FDF80910205893128F42ADF8091020517
:100CC0008931D8F3D092320280910305893170F4D2
:100CD000809102058A3150F080910105893130F40C
:100CE000F801F082F882A0DEC092320280914705BE
:100CF000882309F466CF4091090550910A0522E046
:100D000030E06EE081E0E4DA5CCF993160F2EECF62
:100D1000809103058931E0F2E9CFDF91CF911F91F6
:100D20000F91FF90EF90DF90CF900895AF92BF9218
:100D3000CF92DF92EF92FF920F931F93CF93DF93A7
:100D4000FC019081992381F15F017F018FEFE81A07
:100D5000F80A00E010E0C0E0D0E00115110571F4E0
:100D60006E01EFEFCE1ADE0AC50134D4CC0FDD1FC1
:100D7000CD5EDA4F99838883E6010FC0903269F423
:100D80006E01FFEFCF1ADF0AC70124D4CC0FDD1F9D
:100D9000CD5EDA4F99838883E6010F5F1F4FF7011D
:100DA00091917F019111D9CFDF91CF911F910F9137
:100DB000FF90EF90DF90CF90BF90AF900895CF93CA
:100DC000DF9366E372E023D4EC01892B29F1CE0195
:100DD000019600D44091420250914302FA01EE0F75
:100DE000FF1FEE0FFF1FE85BFD4F288130E021540D
:100DF0003109318320830197938382834F5F5F4F53
:100E0000509343024093420268E372E080E090E036
:100E1000FED3EC01892BD9F68091420290914302D6
:100E2000DF91CF9108954F925F926F927F928F9250
:100E30009F92AF92BF92CF92DF92EF92FF920F9369
:100E40001F93CF93DF937B018C0141505109FA012D
:100E5000EE0FFF1FCF01880F991F880F991F880F72
:100E6000991FE80FF91FE856FD4FA280B3808480D8
:100E7000958060E070E03F0142805380C481D5815D
:100E8000C701841995099C0122F422273327281BC6
:100E9000390BA8014C1B5D0BCA01992324F4882748
:100EA0009927841B950B820F931F97012A193B09E1
:100EB000A90122F444275527421B530B6801C81887
:100EC000D908960122F4222733272C193D09240F33
:100ED000351F821B930B2AF4D3016D937C934E0133
:100EE00052016F5F7F4F34966430710529F6B5016A
:100EF000C401DF91CF911F910F91FF90EF90DF9090
:100F0000CF90BF90AF909F908F907F906F905F90A9
:100F10004F9008951F93CF93DF9300D01F921F929D
:100F2000CDB7DEB7162F95E0EBE3F2E0DE011196C8
:100F300001900D929A95E1F7FE01319620E030E0A4
:100F400040E050E060E070E09191981301C0B90179
:100F5000911301C0A9012F5F3F4F24303105A1F744
:100F60009A01261B370BC90122F488279927821B77
:100F7000930B63E070E0F8D20297E4F4C9010296A3
:100F8000059768F4332324F485E590E066DD15C009
:100F90001216130694F485E590E070DD0EC012166B
:100FA000130624F485E590E058DD07C085E590E060
:100FB00065DD03C08AEA90E061DD109333020F9093
:100FC0000F900F900F900F90DF91CF911F91089588
:100FD000AF92BF92CF92DF92EF92FF920F931F9347
:100FE000CF93DF93161617060CF088C05B01E82E2E
:100FF000F92EC12CD12C8701F7018281938118161B
:10100000190624F463E78091330284DFF8018281BA
:101010009381992324F464E6809133027BDF61E0BD
:1010200081E03BD983E7FED8F80182819381892B47
:10103000A9F0C0E0D0E089DD219621E030E0AE01EA
:1010400063E081E045D9F8018281938199231CF402
:10105000919581959109C817D9076CF3F8018081A2
:101060009181181619064CF462E78091330252DF21
:1010700061E082E012D982E7D5D8F80180819181C0
:1010800099234CF46CE68091330244DF61E082E006
:1010900004D98CE6C7D861E081E0FFD883E7C2D8E5
:1010A000F80180819181892BA9F0C0E0D0E04DDD6D
:1010B000219621E030E0AE0163E081E009D9F8013A
:1010C0008081918199231CF4919581959109C8178C
:1010D000D9076CF3CFD8FFEF2FEF8CE2F15020400F
:1010E0008040E1F700C000009FEFC91AD90AE4E090
:1010F000EE0EF11CAC14BD0409F07DCFDF91CF9151
:101100001F910F91FF90EF90DF90CF90BF90AF9025
:1011100008956F927F928F929F92AF92BF92CF92DB
:10112000DF92EF92FF920F931F93CF93DF93CDB790
:10113000DEB7A0970FB6F894DEBF0FBECDBFD2DCEE
:10114000E4E4F2E0118210821382128202DAB8D94A
:1011500080E092E034DE4C01880C991C89E192E039
:10116000E5DD181419040CF0A8C08E010F5F1F4FA5
:101170007801C12CD12C0F2EF4E4AF2EF2E0BF2E5B
:10118000F02DC601DD200CF401963C0175946794A6
:10119000F301EE0FFF1FEE0FFF1FE85BFD4F6281B3
:1011A0007381D50112962D913C911397621B730B9D
:1011B000208131814D915C91241B350BD701119613
:1011C0003C932E9313967C936E931297608171815A
:1011D000828193816093440270934502809346021A
:1011E000909347029301220F331FF901ED5EFA4FEE
:1011F0004081518118DEF50122813381AC01421B0F
:10120000530B9A0140815181DB01A41BB50BF701FF
:10121000B583A48337832683609344027093450289
:101220008093460290934702F2E0CF0ED11C28E053
:10123000E20EF11CC814D9040CF4A3CF27C0580146
:101240007E2CD80112964D915C91139755231CF476
:1012500051954195510921E030E0672D81E038D862
:10126000F5014081518155231CF451954195510957
:1012700021E030E0672D82E02BD8FFEFEF1AFF0A64
:101280000C5F1F4FEC14FD04D1F626C022E030E0C5
:10129000A4016EE082E01CD88FEF9FEFACE281509A
:1012A0009040A040E1F700C000006401BFEFCB1AFE
:1012B000DB0AEE24E394F12CC2CF22E030E0A4015B
:1012C0006EE082E005D8EFEFFFEF2CE2E150F04056
:1012D0002040E1F700C000002FEF4FEF5CE221500B
:1012E00040405040E1F700C000000E943A01B401C4
:1012F000CE0101966DDE80E090E0A0960FB6F894E6
:10130000DEBF0FBECDBFDF91CF911F910F91FF9038
:10131000EF90DF90CF90BF90AF909F908F907F9095
:101320006F9008950CD0E6C0DED040F0D5D030F0FC
:1013300021F45F3F19F0C7C0511110C1CAC0EBD0F2
:1013400098F39923C9F35523B1F3951B550BBB278C
:10135000AA2762177307840738F09F5F5F4F220F39
:10136000331F441FAA1FA9F333D00E2E3AF0E0E832
:1013700030D091505040E695001CCAF729D0FE2F7E
:1013800027D0660F771F881FBB1F26173707480710
:10139000AB07B0E809F0BB0B802DBF01FF279358C6
:1013A0005F4F2AF09E3F510568F08DC0D7C05F3F68
:1013B000ECF3983EDCF3869577956795B795F795AE
:1013C0009F5FC9F7880F911D9695879597F90895A6
:1013D000E1E0660F771F881FBB1F62177307840742
:1013E000BA0720F0621B730B840BBA0BEE1F88F751
:1013F000E095089598D088F09F5790F0B92F9927DD
:10140000B751A0F0D1F0660F771F881F991F1AF00F
:10141000BA95C9F712C0B13081F09FD0B1E00895FC
:101420009CC0672F782F8827B85F39F0B93FCCF37D
:10143000869577956795B395D9F73EF49095809505
:10144000709561957F4F8F4F9F4F0895E89409C025
:1014500097FB3EF490958095709561957F4F8F4FE7
:101460009F4F9923A9F0F92F96E9BB279395F695FD
:10147000879577956795B795F111F8CFFAF4BB0F7B
:1014800011F460FF1BC06F5F7F4F8F4F9F4F16C0DF
:10149000882311F096E911C0772321F09EE8872F69
:1014A000762F05C0662371F096E8862F70E060E025
:1014B0002AF09A95660F771F881FDAF7880F96959E
:1014C000879597F9089597F99F6780E870E060E045
:1014D00008959FEF80EC089500240A9416161706CD
:1014E00018060906089500240A9412161306140615
:1014F00005060895092E0394000C11F4882352F078
:10150000BB0F40F4BF2B11F460FF04C06F5F7F4F2F
:101510008F4F9F4F089557FD9058440F551F59F016
:101520005F3F71F04795880F97FB991F61F09F3FD0
:1015300079F087950895121613061406551FF2CFF9
:101540004695F1DF08C0161617061806991FF1CF49
:1015500086957105610508940895E894BB27662770
:101560007727CB0197F9089597FB072E16F400947F
:1015700006D077FD08D01AD007FC05D03EF4909530
:1015800081959F4F0895709561957F4F0895A29F13
:10159000B001B39FC001A39F700D811D1124911D47
:1015A000B29F700D811D1124911D0895AA1BBB1BB4
:1015B00051E107C0AA1FBB1FA617B70710F0A61B53
:1015C000B70B881F991F5A95A9F780959095BC0174
:1015D000CD010895FC0188279927E89421912032B4
:1015E000E9F3293010F02E30C8F32B3239F02D32C8
:1015F00031F4689403C040D0820F911D2191205393
:101600002A30C8F31EF4909581959F4F089540E4C9
:1016100052E00BC0FB01DC010D900020E9F71197AF
:1016200001900D920020E1F70895FA01A191B08197
:10163000009719F41097E1F0CD01DC01CD010D9078
:10164000002011F4C00113C0FB012191222319F0E5
:101650002015D9F7F3CFFB012191201519F41E9223
:10166000119606C02223C1F70D900020A1F7D001EA
:10167000FA01A193B08308957AE0979F902D879FF8
:0C168000802D910D11240895F894FFCFE7
:10168C0043310000000000000000000000000000DA
:10169C0000000000000000000031310000000000DC
:1016AC00000000000000000000000000000000002E
:1016BC000000637301002C002C2000646C7372001A
:00000001FF
